:020000040800F2
:10000000804A0020E9020008072D00086F2400083C
:10001000052D000835050008B13900080000000072
:10002000000000000000000000000000290200089D
:100030003705000800000000850200086D32000846
:100040000303000803030008030300080303000878
:100050000303000803030008030300080303000868
:100060000303000803030008030300080303000858
:100070000303000803030008030300080303000848
:100080000303000803030008030300080303000838
:100090000303000803030008030300080303000828
:1000A0000303000803030008030300080303000818
:1000B0000303000803030008030300080303000808
:1000C00003030008030300080303000803030008F8
:1000D0000303000803030008030300086D39000848
:1000E00003030008030300080303000803030008D8
:1000F00061330008030300085533000803030008B8
:1001000003030008030300080303000803030008B7
:1001100003030008030300083D33000849330008C7
:100120000303000803030008030300080303000897
:100130000303000803030008030300080303000887
:100140000303000803030008030300080303000877
:100150000303000803030008030300080303000867
:100160000303000803030008030300080303000857
:100170000303000803030008030300080000000055
:10018000030300080303000800F002F800F03CF845
:100190000AA090E8000C82448344AAF10107DA45E2
:1001A00001D100F031F8AFF2090EBAE80F0013F0F8
:1001B000010F18BFFB1A43F001031847E452000077
:1001C00004530000103A24BF78C878C1FAD8520707
:1001D00024BF30C830C144BF04680C6070470000C1
:1001E0000023002400250026103A28BF78C1FBD840
:1001F000520728BF30C148BF0B6070471FB505F0DC
:1002000010F91FBD10B510BD00F061F91146FFF7E0
:10021000F5FF03F06FFC00F07FF903B4FFF7F2FF86
:1002200003BC03F065FC00002C4B19680868B0E8BB
:10023000F04F80F30988BFF36F8F4FF0000080F319
:10024000118870470000000008480068006880F3CB
:1002500008884FF0000080F3148862B661B6BFF3DF
:100260004F8FBFF36F8F00DF00BF00BF08ED00E0CE
:10027000DFF80C00016841F470010160704700BFB5
:1002800088ED00E0EFF30980BFF36F8F134B1A681E
:100290001EF0100F08BF20ED108A20E9F04F10600B
:1002A00009B44FF0500080F31188BFF34F8FBFF3B4
:1002B0006F8F04F051F94FF0000080F3118809BCF2
:1002C00019680868B0E8F04F1EF0100F08BFB0ECD6
:1002D000108A80F30988BFF36F8F70477000002089
:1002E000EFF3058070470000094880470948004740
:1002F000FEE7FEE7FEE7FEE7FEE7FEE7FEE7FEE7D6
:10030000FEE7FEE704480549054A064B7047000032
:100310002D3300088901000880440020804A002015
:10032000804600208046002053EA020C00F06980DD
:100330002DE9F04B4FF00006002B1FBFB3FA83F5F9
:1003400003FA05F424FA05F65E4012BF1643B2FA2A
:1003500082F502FA05F4C5F120051EBF22FA05FC5C
:1003600044EA0C04203556EA044C4FEA144418BF02
:10037000641C4FF000084FF00009904271EB030C31
:1003800039D3002919BFB1FA81F701FA07F6B0FA9B
:1003900080F700FA07F6C7F120071EBF20FA07FC16
:1003A00046EA0C062037B6FBF4FCA7EB0507103F26
:1003B00007F01F0BCBF120060CFA0BFB2CFA06F60C
:1003C00044BFB3460026202FA4BF5E464FF0000B6B
:1003D0005BEA060C08BF4FF0010B19EB0B09ABFBF6
:1003E000027C48EB0608C01B06FB02CC0BFB03CCCF
:1003F00071EB0C01C1E70B46024641464846BDE899
:10040000F08B13B54FF000004FF00001AFF3008008
:10041000BDE81C40704710B5203AC0F00B80B1E831
:100420001850203AA0E81850B1E81850A0E8185029
:10043000BFF4F5AF5FEA027C24BFB1E81850A0E832
:10044000185044BF18C918C0BDE810405FEA827C4C
:1004500024BF51F8043B40F8043B08BF7047D20763
:1004600028BF31F8023B48BF11F8012B28BF20F804
:10047000023B48BF00F8012B70474FF0000200B567
:10048000134694469646203922BFA0E80C50A0E8B7
:100490000C50B1F12001BFF4F7AF090728BFA0E865
:1004A0000C5048BF0CC05DF804EB890028BF40F831
:1004B000042B08BF704748BF20F8022B11F0804F73
:1004C00018BF00F8012B704770477047704775469A
:1004D00000F02CF8AE4605006946534620F00700B0
:1004E000854618B020B5FFF70DFFBDE820404FF05E
:1004F00000064FF000074FF000084FF0000B21F00E
:100500000701AC46ACE8C009ACE8C009ACE8C009DA
:10051000ACE8C0098D46704710B50446AFF30080C3
:100520002046BDE81040FFF778BE00000048704745
:100530001C440020FEE7704772B6FEE72DE9F0414B
:100540000446876D00F06EF9064694F835000025E4
:10055000022806D08020606584F834500120BDE870
:10056000F0812068016821F016010160206841696E
:1005700021F080014161206C08B9A06C20B1206895
:10058000016821F0080101602068016821F0010183
:1005900001600CE000F046F9801B052807D92020F7
:1005A0006065032084F8350084F83450D7E720686C
:1005B0000068C007EED194F85C103F208840B86016
:1005C000012084F8350084F834500020C7E790F803
:1005D0003510022903D08021416501207047052193
:1005E00080F835100068016821F0010101600020E9
:1005F0007047000070B5044600F014F90546601C11
:1006000002D004480078044400F00CF9401BA042DA
:10061000FAD370BD600000202DE9F84FDFF8BCA1CF
:100620000022012503264FF00F090AF1040BAAF15D
:10063000040E00BF0B6805FA02F42340A34270D1F8
:100640000F7907F00307012F01D0022F16D1876819
:100650004FEA420806FA08FC27EA0C07D1F80CC05A
:100660000CFA08FC4CEA070CC0F808C04768A7431E
:100670000C79C4F3001494403C4344600C79E44387
:10068000A4070AD0C4684FEA420C06FA0CF7BC4330
:100690008F6807FA0CF72743C7600C7904F003044E
:1006A000022C12D1D40800EB840CDCF82040570750
:1006B000FF0E09FA07F824EA0804D1F8108008FAB6
:1006C00007F848EA0408CCF8208004684FEA420C96
:1006D00006FA0CF7BC430F7907F0030707FA0CF78B
:1006E000274307604C6814F4403F70D03C4C2768A7
:1006F00047F480472760246822F0030704F480440D
:100700000094384C07EB040CDCF8084897074FEAD4
:10071000177809FA08F7BC43334FB84202D10027D3
:1007200024E054E0314FB84201D101271EE0304FA0
:10073000B84201D1022719E02E4FB84201D1032758
:1007400014E02D4FB84201D104270FE02B4FB842DF
:1007500001D105270AE02A4FB84201D1062705E05A
:10076000284FB84201D1072700E0082707FA08F709
:100770002743CCF80878DAF800405746D1F804C08F
:100780009C435FEACC2C00D51C433C60DBF8004066
:100790005F46D1F804C09C435FEA8C2C00D51C4313
:1007A0003C60DEF800407746D1F804C09C435FEA25
:1007B0008C3C00D51C433C60084F083F3C68D1F896
:1007C00004C09C435FEACC3C00D51C433C60521CF7
:1007D000102AFFF42FAFBDE8F88F0000083C01405D
:1007E0004438024000300140000002400004024052
:1007F00000080240000C02400010024000140240B9
:1008000000180240001C0240426921EA02030A402B
:1008100043EA0241816170470AB18161704709046E
:10082000FBE700000148806870470000600000207E
:1008300070B5040025D094F83D00002520B984F857
:100840003C50204600F03EFA242084F83D00206809
:10085000016821F0010101602068016841F4004154
:1008600001602068016821F40041016000F0E2FBB2
:100870004D4A6168914201D84C4900E04C49884298
:1008800001D2012070BD4B492368B0FBF1F15E68D5
:1008900026F03F060E435E606368934206D94FF42C
:1008A000967359434FF47A73B1FBF3F12368491CF3
:1008B0001E6A26F03F06314319626168914210D8E2
:1008C0004900401EB0FBF1F2521CC2F30B02042A95
:1008D00001D2042022E0B0FBF1F0401CC0F30B0079
:1008E0001CE0A268F2B301EBC10303EB0116431E47
:1008F000B3FBF6F35B1C43F480431B0549D092B372
:1009000001EBC10202EB0111401EB0FBF1F0401CF3
:10091000C0F30B0040F4804040F400402168CA69F5
:100920004CF6FF739A431043C861D4E907100143A2
:100930002068026822F0C00211430160D4E903017B
:1009400001432068826848F2FF339A431143816073
:10095000D4E9050108432168CA6822F0FF02104368
:10096000C86001E00EE016E02068016841F0010176
:1009700001602564202084F83D00256384F83E5002
:10098000002070BD01EB4106431EB3FBF6F35B1C78
:10099000B3E70120C2E701EB4101401EB0FBF1F0DB
:1009A000401CC0F30B00B7E7A086010080841E0046
:1009B00000093D0040420F002DE9F84F1F469046C8
:1009C0008A460446DDF82890FFF72CFF054694F888
:1009D0003D00202875D1192301226C49204600953D
:1009E00001F048FE0028F5D194F83C00012868D0B9
:1009F000012084F83C0020680168C90703D1016820
:100A000041F0010101602068016821F4006101608A
:100A1000222084F83D00102084F83E000026266441
:100A2000C4F824806785608D20855948E0622B4694
:100A30004A465146204601F033FD002878D1208DEA
:100A4000544F68B1012814D002282068016816D0DC
:100A500041F480610160206841698069009087E00D
:100A60002068416981690091016841F40071016069
:100A70007EE02068016821F480610160F0E721F4E4
:100A8000806101602068016841F40061E2E70328A9
:100A900048D801280AD0022814D04B4600223946F3
:100AA0002046009501F0E6FDD8BB27E02A464946DE
:100AB000204601F05EFEA0BB20680069616A0870F4
:100AC0004DE061E04B46002239462046009501F09A
:100AD000D1FD30BB2068016841F4007101602068DD
:100AE0000069616A0870606A401C6062218D491E5D
:100AF0002185618D491E618521682EE0206801688D
:100B000021F48061016020680069616A0870606A90
:100B1000401C6062208D401E2085608D401E6085D7
:100B2000D0E705E02A464946204601F022FE10B1F2
:100B30000120BDE8F88F20680069616A0870606A6A
:100B4000401C6062218D491E2185618D491E618591
:100B500021684A69D24352070AD409690170606A60
:100B6000401C6062208D401E2085608D401E608587
:100B7000208D00288BD1202084F83D0084F83E6031
:100B800084F83C600020D4E70220D2E70200100085
:100B90000000FFFF040001002DE9F84F1F469046BA
:100BA0008A460446DDF82890FFF73CFE054694F897
:100BB0003D0020287FD1192301224049204600957D
:100BC00001F058FD002876D194F83C00012872D03D
:100BD000012084F83C0020680168C90703D101683E
:100BE00041F0010101602068016821F400610160A9
:100BF000212084F83D00102084F83E000026266461
:100C0000C4F824806785608D20852D48E0622B46DE
:100C10004A465146204601F0B9FC90B92068416926
:100C20008069009036E02A464946204601F0D4FD0E
:100C300050B1206C042804D12068016841F400718F
:100C400001600120BDE8F88F606A216800780861C2
:100C5000606A401C6062618D491E6185218D491E5C
:100C600089B2218522685369DB435B070BD451B1FC
:100C700000781061606A401C6062608D401E608573
:100C8000208D401E20852A464946204601F0CCFC96
:100C90000028CED1208D0028C5D154F83D0B016825
:100CA00041F400710160202004F81E09E6776677A0
:100CB0000020C7E7FFE70220C4E7000002001000A1
:100CC0000000FFFF10B586B0044614216846FFF708
:100CD000D4FB13492068884220D1124800210268C1
:100CE00042F002020260006800F002000590C0209D
:100CF00000901220CDE9010103200390042004900C
:100D000069460948FFF788FC06481030016841F43D
:100D100000110160006800F40010059006B010BDDD
:100D2000005400403038024000040240024881680C
:100D30000278114481607047600000200B4810B5B4
:100D4000016841F400710160016841F48061016053
:100D5000016841F480710160032000F09FF80F20CA
:100D600000F006F800F050F8002010BD003C0240F2
:100D700030B505461F4887B00024016841F02001C6
:100D80000160006806A900F02000009001A800F0B2
:100D900031F90498A8B100F04DF940001649174AFE
:100DA000B0FBF1F11648491E026040F2E732C0E99B
:100DB0000324C0E90114846100F08EFB040003D019
:100DC00015E000F037F9E9E70D4800F021FC0400D8
:100DD0000DD1372000F034F8102D07D2002229461B
:100DE000372000F03BF80748056000E0012407B019
:100DF000204630BD4038024040420F000014004001
:100E0000E4060020640000200C4882B0016841F430
:100E100080410160006800F4804000900748001F96
:100E2000016841F0805101600068002200F08050AC
:100E300000900F21901E02B000F010B8443802401C
:100E4000002809DB00F01F020121914040098000C9
:100E500000F1E020C0F8001170470000F0B40E4B24
:100E60001B680C46C3F30223C3F10705042D00D908
:100E70000425191D072901D2002300E0DB1E0126ED
:100E800006FA05F1491E214099409E40761E164003
:100E90003143F0BC02F08DBD0CED00E0064900F0DE
:100EA000070208684FF6FF03184040EA0220034A91
:100EB00010430860704700000CED00E00000FA05E8
:100EC0002DE9F0470E46050065D0DFF81481D8F80B
:100ED0000000F7B200F00700B04207D288F80070B7
:100EE000D8F8000000F00700B04254D128683D4C0B
:100EF000810712D5400703D5206840F4E0502060F8
:100F00002878000703D5206840F4604020602068FE
:100F1000A96820F0F000084320602878C0072DD091
:100F2000304968680839012812D0022813D00328F4
:100F300011D00968890700292DDA216821F0030101
:100F400001432160FFF76EFC814641F2883A0EE0D2
:100F500009688903EFE709688901ECE7FFF762FC9C
:100F6000A0EB0901514502D90320BDE8F0872068B4
:100F7000696800F00C00B0EB810FEFD1D8F80010D9
:100F8000404601F00701B14207D90770006800F040
:100F90000700B04201D00120E7E72878400705D5D7
:100FA0002068E96820F4E0500843206028780007B2
:100FB00006D52068296920F4604040EAC10020601D
:100FC00000F058F82168084AC1F30311515CC84089
:100FD0000649086006480068FFF7CAFE0020C4E71B
:100FE000003C024008380240705400086C000020A9
:100FF000640000200F2202600C4A136803F0030310
:101000004360136803F0F0038360136803F4E05354
:10101000C36012684FF4E05303EAD202026104484D
:10102000006800F0070008607047000008380240C0
:10103000003C02400448054900680968044AC1F3BD
:101040008221515CC84070476C0000200838024083
:10105000805400080448054900680968044AC1F33F
:101060004231515CC84070476C0000200838024093
:1010700080540008154810B5006810F00C021448A0
:1010800013D01449042A0FD0082A0ED10F4C241F64
:101090002268236802F03F025B0207D52068C0F394
:1010A0008810A0FB010106E0084610BD2168C1F3CD
:1010B0008811A1FB00010023FFF736F92168C1F375
:1010C0000141491C4900B0FBF1F010BD0838024055
:1010D0000024F40040787D012DE9F84F04006ED023
:1010E0002078DFF84C93C007A9F104054AD009F134
:1010F00004000168C1F38101012908D00068C0F330
:10110000810002280AD1D9F80000400206D52868DB
:10111000800337D560680028E1D033E06068B0F51F
:10112000803F10D0B0F5A02F286810D020F4803078
:101130002860286820F4802028606068A8B1FFF744
:1011400071FB06460DE0286840F48030F4E740F477
:1011500080202860F7E700BFFFF764FB801B64284E
:1011600073D828688003F7D50CE0FFF75BFB0646D1
:1011700005E000BFFFF756FB801B6428F0D8286805
:101180008003F7D42078DFF8AC8280074FF0000AA4
:101190003ED5A748001D016811F00C0F08D000686B
:1011A000C0F3810002280BD1D9F80000400207D417
:1011B0002868800716D5E068012800D112E033E1E5
:1011C000E068B8B10120C8F80000FFF72BFB064625
:1011D00005E000BFFFF726FB801B0228C0D8286867
:1011E0008007F7D52868216920F0F80040EAC1009F
:1011F00028600DE0C8F800A0FFF714FB064604E0E5
:10120000FFF710FB801B02281FD828688007F7D43F
:101210002078000722D5864F87486169703771B101
:1012200001210160FFF7FEFA064604E0FFF7FAFA33
:10123000801B022809D838688007F7D50EE0C0F86F
:1012400000A0FFF7EFFA064605E082E0FFF7EAFAB2
:10125000801B02287DD838688007F7D420784007A3
:1012600068D5DFF8CCB100270BF13C0BDBF80000B0
:10127000C0000BD4DBF8001041F08051CBF8001017
:10128000DBF80000012700F0805000906B4E3068C2
:10129000C00510D4306840F480703060FFF7C2FAA7
:1012A000009005E0FFF7BEFA0099401A022850D8D6
:1012B0003068C005F6D55E4EA0686C3601280FD0A8
:1012C0000528306810D020F001003060306820F030
:1012D00004003060A068B8B1FFF7A4FA00900FE0F6
:1012E000306840F00100F4E740F004003060F7E7B8
:1012F000FFF798FA0099411A41F28830814266D886
:1013000030688007F4D50EE0FFF78CFA009007E014
:10131000FFF788FA0099411A41F28830814256D885
:1013200030688007F4D42FB1DBF8001021F0805131
:10133000CBF80010A069C8B33D49091D0968C1F385
:10134000810102294AD00228504607D0C8F860001F
:1013500000E03CE0FFF766FA04463BE04746C8F889
:101360006000FFF75FFA064605E000BFFFF75AFA94
:10137000801B02282BD828688001F7D4D4E9070104
:101380000843A16A2E4A490802EB0141626A41EA18
:101390008211084394F82C1040EA0161C9F800104A
:1013A00001203866FFF73EFA044606E03EE000BF43
:1013B000FFF738FA001B022809D828688001F7D502
:1013C00034E000BFFFF72EFA001B022802D90320E9
:1013D000BDE8F88F28688001F4D427E00128F7D011
:1013E000D9F80000E26900F4800191421CD1226A20
:1013F00000F03F01914217D147F6C071626A014087
:10140000B1EB821F10D1A26A4FF0FF3300F44031DC
:1014100003EB5202B1EB024F06D194F82C1000F00E
:101420007060B0EB016F01D00120D1E70020CFE761
:101430000438024000004742800E474200700040DE
:101440000000FFFF7047704770B590F83C20012AFC
:1014500032D0012480F83C40022280F83D2003680D
:101460005A689D6822F070060A6832435A60134B2E
:1014700002689A4214D0B2F1804F11D0104B9A42B8
:101480000ED0104B9A420BD00F4B9A4208D00F4B04
:101490009A4205D00E4B9A4202D00E4B9A4204D18A
:1014A000496825F080031943916080F83D40002190
:1014B00080F83C10084670BD022070BD000001405D
:1014C0000004004000080040000C004000040140FF
:1014D000004001400018004010B5040003D094F80B
:1014E0003D0010B107E0012010BD002084F83C0051
:1014F000204600F01FF8022084F83D00211D2068DE
:1015000001F03CFF012084F8460084F83E0084F896
:101510003F0084F8400084F8410084F8420084F8D9
:10152000430084F8440084F8450084F83D0000201E
:1015300010BD000010B586B0044614216846FEF7C1
:101540009CFF2E4B226800212D489A420ED1016843
:1015500041F0100101600068002200F010000590C9
:1015600006213620FFF77AFC362030E0254B9A42E0
:1015700031D12348001D026842F002020260006877
:1015800000F0020005901E481038026842F0040284
:101590000260006800F004000590402000900220E6
:1015A000CDE901010320CDE9031069461648FFF794
:1015B00033F8002205212C20FFF750FC2C20FFF7E8
:1015C0003FFC002206212E20FFF748FC2E20FFF7CB
:1015D00037FC06B010BD0D498A42FAD1016841F0CE
:1015E000800101600068002200F080000590052164
:1015F0002C20FFF733FC2C20E9E70000001000400E
:10160000403802400004014000080240001C004035
:1016100090F83D10012901D001207047022180F887
:101620003D100168CA6842F00102CA6000681149B1
:10163000884214D0B0F1804F11D00F4988420ED0AB
:101640000E4988420BD00E49884208D00D49884285
:1016500005D00D49884202D00C49884204D18168E6
:1016600001F00701062903D0016841F00101016082
:1016700000207047000001400004004000080040C6
:10168000000C0040000401400040014000180040F0
:1016900070B5044690F83C000025012817D00126BB
:1016A00084F83C60022084F83D002068826822F0C3
:1016B000770222F47F4282600868502838D00DDC1F
:1016C00020284FD005DC90B3102811D14AE0022029
:1016D00070BD302846D040280AD13BE060282FD08A
:1016E00070280DD0B0F5805F03D0B0F5005F12D048
:1016F000012584F83D60002084F83C00284670BD38
:10170000CB68D1E90121206801F0A9FE2068816839
:1017100041F0770109E0CB68D1E90121206801F0AF
:101720009EFE2068816841F480418160E1E719E014
:10173000CA684968206801F067FF5021206806E008
:10174000CA684968206801F0B1FF6021206801F093
:1017500090FECEE7CA684968206801F055FF402135
:101760002068F4E7226801461046F0E72DE9F041D1
:101770000D46040003D094F83D0018B108E00120A4
:10178000BDE8F081002084F83C00204600F040F8DD
:10179000022084F83D002068816844F207029143EA
:1017A0008160211D206801F0E9FD2268906891693F
:1017B000166A2B68AF69034340F20330814341EA64
:1017C0000721A868EF6908434FF6FC418843E968A0
:1017D00040EA0720014328692F6A000140EA0730E8
:1017E000084369686D6926F0AA0646EA051529438B
:1017F00093602268906154F8460B0162012004F85E
:101800001F09E0752076E0762077A0750020B7E705
:1018100030B587B0044614216846FEF72EFE2468D2
:101820002E4B00222E4802219C421BD12C4B1433FC
:101830001C6844F001041C601B6803F0010305935D
:10184000036843F010030360006800F01000059087
:101850004FF420608DE807000120CDE903206946A0
:1018600020481BE01E4B204D1033AC421AD11C689F
:1018700044F002041C601B6803F002030593036834
:1018800043F001030360006800F001000590C020F0
:101890008DE80700CDE9032169461448FEF7BCFE38
:1018A00007B030BD124DAC42FAD11C6844F00404BC
:1018B0001C601B6803F004030593036843F00803EE
:1018C0000360006800F0080005904FF440508DE878
:1018D0000700CDE9032169460648DFE70000014023
:1018E0003038024000100240000400400000024076
:1018F00000080040000C024070B51948194C002146
:101900008669226801255EB10346012EDB6819D085
:10191000022E04D1526BC5618260C0E9053170BDF1
:10192000516241608160C1600161416121680A6A60
:1019300022F00A020A6221680A6A42F002020A627E
:10194000856170BD516B03614160116A21F00A012C
:10195000116221680A6A0A620221816170BD000079
:1019600000000020800500202DE9F041054690F898
:101970003C0000260C46012810D0012085F83C00D0
:1019800072B1042A1CD0082A2CD00C2A50D001266F
:10199000002085F83C003046BDE8F0810220FBE7DE
:1019A000D4E90012E368286801F040FE28688169E4
:1019B00021F00C01816128688169A26811430FE060
:1019C000D4E90012E368286801F082FE2868816982
:1019D00021F44061816128688169A26841EA02219D
:1019E0008161D5E72868D4E9002C277B016A21F4BE
:1019F00080710162C169036A21F0030141EA0C01AF
:101A000021F0F00C39074FF420674CEA116123F400
:101A1000206307EA02221A43C16102622868C16991
:101A200021F00C01C1612868C169A268114328E056
:101A30002868D4E90027E168036A23F4805303622D
:101A4000D0F81CC0036A2CF4407C4CEA07274FF600
:101A5000FF7C27F470470CEA013139434FF42047EB
:101A600023F4204307EA02321A43C1610262286864
:101A7000C16921F44061C1612868C169A26841EA75
:101A80000221C16184E710B5040003D094F83D0041
:101A900010B107E0012010BD002084F83C00204672
:101AA00000F01EF8022084F83D00211D206801F09E
:101AB00065FC012084F8460084F83E0084F83F006D
:101AC00084F8400084F8410084F8420084F8430020
:101AD00084F8440084F8450084F83D00002010BDDF
:101AE0007047000030B50446002551B104290DD0DF
:101AF000082910D094F8410094F84520012811D10C
:101B00000EE094F83E0094F84220F7E794F83F0086
:101B100094F84320F2E794F8400094F84420EDE76D
:101B2000012A01D0012030BD022059B1042912D070
:101B3000082919D084F8410084F845000C2944D0C4
:101B4000012540E084F83E0084F842002068C26825
:101B500042F0020210E084F83F0084F8430020685D
:101B6000C26842F0040207E084F8400084F84400B0
:101B70002068C26842F00802C2600122206801F0B9
:101B800061FC14492068884214D0B0F1804F11D014
:101B9000114988420ED0114988420BD01049884221
:101BA00008D01049884205D00F49884202D00F4919
:101BB000884204D1816801F00701062903D0016839
:101BC00041F001010160284630BD2068C26842F042
:101BD0001002D1E70000014000040040000800406E
:101BE000000C00400004014000400140001800408B
:101BF00070B50446006801694FF00005C9438907C4
:101C000015D4C168C943890711D4E91E01610120B7
:101C10002077206880698007204602D0FFF76CFE9D
:101C200004E000F0F3F8204600F0A6F925772068DC
:101C30000169C943490717D4C168C943490713D487
:101C40006FF004010161022020772068806910F4A0
:101C5000407F204602D0FFF74FFE04E000F0D6F8A8
:101C6000204600F089F9257720680169C9430907F2
:101C700016D4C168C943090712D46FF00801016185
:101C8000042020772068C0698007204602D0FFF733
:101C900033FE04E000F0BAF8204600F06DF9257735
:101CA00020680169C943C90617D4C168C943C90678
:101CB00013D46FF010010161082020772068C069FB
:101CC00010F4407F204602D0FFF716FE04E000F03B
:101CD0009DF8204600F050F9257720680169C94336
:101CE000C90708D1C168C943C90704D1891E016168
:101CF000204600F0A7F920680169C943090609D404
:101D0000C168C943090605D46FF08001016120460E
:101D1000FFF798FB20680169C943490609D4C168E7
:101D2000C943490605D46FF040010161204600F027
:101D3000A1F920680169C94389060BD4C168C94368
:101D4000890607D46FF0200101612046BDE870408C
:101D5000FFF779BB70BD000030B587B00446142191
:101D60006846FEF78AFB2368214C002021490222A5
:101D7000A34211D10B6843F010030B60096801F016
:101D80001001059160210091CDE90120039003200D
:101D900004906946184813E0184D0924AB4213D14A
:101DA0000B6843F002030B60096801F00201059122
:101DB000E9130091CDE90120CDE9030469461048FB
:101DC000FEF72AFC07B030BD0E4DAB42FAD10B68CE
:101DD00043F020030B60096801F020010591A9156B
:101DE0000091CDE90120CDE9030469460648E7E703
:101DF000004001403038024000100240001800400E
:101E000000040240001C004000140240704770B5FE
:101E1000044690F83C0000260D4601280FD0012012
:101E200084F83C006AB1042A1DD0082A2FD00C2A5D
:101E30003FD00126002084F83C00304670BD0220CF
:101E400070BD206801F01EFB2068816941F0080127
:101E500081612068816921F00401816120688169C4
:101E60002A69114311E0206801F03CFB2068816978
:101E700041F4006181612068816921F480618161A0
:101E8000206881692A6941EA02218161D2E72068DC
:101E900001F05EFB2068C16941F00801C161206862
:101EA000C16921F00401C1612068C1692A69114337
:101EB00011E0206801F080FB2068C16941F40061F5
:101EC000C1612068C16921F48061C1612068C16974
:101ED0002A6941EA0221C161ACE710B5040003D0D0
:101EE00094F83D0010B107E0012010BD002084F8F7
:101EF0003C00204600F01EF8022084F83D00211D21
:101F0000206801F03BFA012084F8460084F83E0086
:101F100084F83F0084F8400084F8410084F84200CF
:101F200084F8430084F8440084F8450084F83D00B8
:101F3000002010BD08B500680C49884208D10C4843
:101F4000016841F480310160006800F480300BE0EA
:101F50000849884209D10648001F016841F0400144
:101F60000160006800F04000009008BD00400140A2
:101F700044380240001800407047000010B5044685
:101F8000022249B104290ED0082913D094F8410047
:101F9000012816D0012010BD94F83E000128F9D187
:101FA00084F83E200FE094F83F000128F2D184F835
:101FB0003F2008E094F840000128EBD184F840204D
:101FC00001E084F841200122206801F03BFA164923
:101FD0002068164A884201D0904203D1436C43F4F2
:101FE000004343642068884213D0B0F1804F10D082
:101FF0000F4988420DD00F4988420AD00E498842C5
:1020000007D0904205D00D49884202D00C49884241
:1020100004D1816801F00701062903D0016841F06D
:1020200001010160002010BD0000014000040140DA
:102030000004004000080040000C00400040014047
:102040000018004010B5044600680749884201D1D5
:10205000FEF76CFE05492068884203D10448C16838
:10206000491CC16010BD0000001400400004014084
:102070000000002070477047704710F83D1F4078FF
:1020800008437047F8B5016804460868CA684B6998
:1020900010F00F0F4FF000055AD003F0010602F4C4
:1020A0009077374365D0C10705D0D10503D5216CA2
:1020B00041F001012164410705D5D90703D0216C06
:1020C00041F002012164810705D5D90703D0216CB5
:1020D00041F004012164010707D502F020013143DA
:1020E00003D0216C41F008012164216C00293BD010
:1020F000800604D5900602D5204601F033FB206807
:102100004069216CC0F3801001F0080101432046B2
:102110002BD001F000FB20684069400621D52068E3
:10212000143050E8001F21F0400140E80012002A5E
:10213000F5D1A06BA8B16C490165A06BFEF747FA19
:10214000002811D0A06B016D01B0BDE8F040084738
:1021500083060ED593060CD52046BDE8F84001F065
:1021600001BB2046FFF788FFF8BDFFF785FF256418
:10217000F8BD266B2023012E79D1C60677D5D60669
:1021800075D50868486800904869400640D5A16B3D
:10219000086840680004000CEAD0A28D8242E7D9AA
:1021A000E085C869B0F5807F2DD020680C3050E8FC
:1021B000001F21F4807140E80012002AF5D1206848
:1021C000143050E8001F21F0010140E80012002AFD
:1021D000F5D12068143050E8001F21F0400140E89C
:1021E0000012002AF5D184F83E30256320680C30B7
:1021F00050E8001F21F0100140E80012002AF5D13C
:10220000A06BFEF79BF9A08DE18D401A81B229E009
:10221000A08DE18D401A81B2E08D0028A8D0002960
:10222000A6D020680C3050E8002F22F4907240E8CD
:102230000026002EF5D12068143050E8002F22F03F
:10224000010240E80026002EF5D184F83E302563D7
:1022500020680C3050E8002F22F0100240E80023E4
:10226000002BF5D12046FFF706FFF8BDFFE7050676
:102270002BD5150629D594F83D002128F5D1A06865
:10228000B0F5805F01D12069B0B1206A411C2162A4
:10229000216800784860E08C401E0004000CE08457
:1022A000E3D12068C16821F08001C1602068C16865
:1022B00041F04001C160D8E7206A0088C0F30800FF
:1022C0004860206A801C2062E5E74006CDD55006B4
:1022D000CBD5CA68204622F04002CA6084F83D305F
:1022E00000F0C4F8C1E700000737000870B504002B
:1022F00004D094F83D00002510B106E0012070BD27
:1023000084F83C50204600F023F8242084F83D0057
:102310002068C16821F40051C160204601F082FAB2
:102320002068016921F4904101612068416921F030
:102330002A0141612068C16841F40051C1602564EF
:10234000202084F83D0084F83E00002070BD00008D
:1023500010B586B0044614216846FEF78EF8184979
:102360002068884229D117480021026842F480225F
:102370000260006800F4802005901248103802685E
:1023800042F002020260006800F0020005904FF483
:10239000406000900220CDE9010103200390072056
:1023A000049069460848FEF737F9002205212720E6
:1023B000FEF754FD2720FEF743FD06B010BD0000D8
:1023C00000480040403802400004024090F83E308F
:1023D000202B0ED159B152B190F83C30012B08D0CE
:1023E000012380F83C300023036301F0A1BA0120EF
:1023F00070470220704700002DE9F041006817493E
:10240000884228D11648174E044601786088315416
:1024100010B931780F291ED1401C80B2002760808E
:10242000642800D9678030780F2814D1307E0028C6
:1024300011D1608819280ED10A4801F0D1FEDFF8C9
:102440002880002502214046FEF7DEF96D1C192D7B
:10245000F8DB77556780BDE8F08100000048004058
:10246000000000202C010020001402407047FEE70D
:1024700001684A69D24352050FD46FF480624A6101
:10248000002140F8301F202242738173026942F01C
:1024900004020261017301207047002070470000B0
:1024A0002DE9F84F0446C06A1E4693460D46216842
:1024B0000A6842F480620A60082807D0012805D023
:1024C00010F5803F02D0206B112804D120680168EC
:1024D00041F4807101604FF001195B4600224946CA
:1024E0002046009600F0C6F84FF4007840B120680E
:1024F0000068C00501D5C4F840800320BDE8F88F0E
:102500002069DFF884A0B0F5804F0FD00620216845
:1025100000EAD51747F0F000086133465A460AF141
:102520000601204600F0DAF858BB03E0E8B240F0BC
:1025300001001CE02168E8B2086133465A46514662
:10254000204600F0CBF8E0B920684169816900912C
:10255000016841F4807101605B46002249462046D3
:10256000009600F087F80028C1D147F0F1002168FB
:10257000086133465A465146204600F0AFF800281D
:10258000BCD00120BAE7000002000100F8B5044603
:10259000C06A1E460D461746082807D0012805D0F8
:1025A00010F5803F02D0206B122804D1206801680A
:1025B00041F480710160134600224FF00111204662
:1025C000009600F057F840B120680068C00502D5B9
:1025D0004FF4007020640320F8BD2069B0F5804FEF
:1025E0000ED00620216800EAD51040F0F000086106
:1025F00033463A460B49204600F070F878B902E0BD
:1026000005F0FE0000E0E8B22168086105493346A4
:102610003A46891F204600F061F80028DCD00120EE
:10262000F8BD00000800010070B516460D460446CE
:102630000DE02046FFF71CFF08B1012070BD681CAB
:1026400005D0FEF7EFF8801BA84207D835B1206807
:102650004069C0434007ECD4002070BD002044F81E
:10266000300F20216173A073216941F020012161A5
:102670002073E2E72DE9F0471E4690460D460446DA
:10268000C1F30747DDF8209008E0701C06D0FEF784
:10269000C9F8A0EB0900B0420FD876B12068012F2D
:1026A00018D0806925EA00000004000C14D0002135
:1026B0004145EAD00020BDE8F087002044F8300F03
:1026C00020216173A073216941F0200121612073F1
:1026D0000120F0E74069E5E70121E9E72DE9F0474E
:1026E0009A4691460E46044600254FF02008C1F355
:1026F000074725E020684069C043400514D420689E
:10270000016841F40071016021686FF480604861E4
:10271000256384F83D8084F83E50206C40F004002E
:10272000206484F83C501FE0B9F1FF3F08D0FEF769
:1027300079F8A0EB0A0149450CD8B9F1000F09D08E
:102740002068012F13D0806926EA00000004000CE5
:102750000BD0CFE744F8305F84F80D80A573206973
:1027600040F02000206125730120BDE8F08740691A
:10277000EAE72DE9F041002590460E460446202761
:1027800017E04069C043C0060CD454F8301B6FF00A
:102790001000486144F810596777A577206A2062D5
:1027A000257717E0FEF73EF8A0EB0800B04208D806
:1027B0003EB120684169C9434906E2D40020BDE822
:1027C000F08144F8305F6773A573206940F0200002
:1027D000206125730120F2E770B516460D460446C8
:1027E0000DE02046FFF744FE08B1012070BD681CD3
:1027F00005D0FEF717F8801BA84207D835B120682E
:102800004069C0430006ECD4002070BD002044F8AD
:10281000300F20216173A073216941F020012161F3
:102820002073E2E710B58EB01C220B496846FDF715
:10283000F2FD0021684601F0C1F9084C06491C224E
:1028400020631C3107A8FDF7E6FD002107A801F071
:10285000B5F960630EB010BD3854000828000020A0
:102860002DE9F04186B014216846FDF706FE2F4899
:102870000024016841F010010160016801F01001BD
:102880000591016841F020010160016801F020011B
:102890000591016841F080010160016801F080014B
:1028A0000591016841F001010160016801F0010139
:1028B0000591016841F002010160016801F0020127
:1028C0000591016841F008010160016801F008010B
:1028D0000591016841F0040101600068144F00F0A7
:1028E000040005900022FF213846FDF795FFDFF830
:1028F00044804FF48276002231464046FDF78CFF3B
:10290000FF2000900125CDE9015469463846039423
:10291000FDF782FE0096CDE90154694640460394D6
:10292000FDF77AFE06B0BDE8F081000030380240C5
:1029300000140240000002400D4810B50B49016030
:102940000C49416000214FF480428160C0E90312CC
:1029500041618161C1610162FDF76AFF002803D016
:10296000BDE81040FDF7E8BD10BD00000054004078
:102970000C040020A086010010B588B01C21684618
:10298000FDF77BFD12481149002401605321C0E985
:10299000011440F2A461C0E903148461FFF79DFAB9
:1029A00008B1FDF7C9FD6020CDE9000402940422BE
:1029B000694607480494FFF72AFA08B1FDF7BCFD01
:1029C0000348FFF7C9F908B010BD00000018004027
:1029D0001006002010B588B01C216846FDF74DFD9B
:1029E00015481449002401605321C0E9011440F244
:1029F000A461C0E903148461FEF76EFD08B1FDF720
:102A00009BFD0D48FFF769FA08B1FDF795FD6020C1
:102A1000CDE9000402940022694607480494FFF7B8
:102A2000F6F908B1FDF788FD0348FFF795F908B0FE
:102A300010BD0000001C00405806002010B58CB0EE
:102A400024216846FDF719FD00241648099414490D
:102A50000A94C0E900144FF6FF71C0E90241046115
:102A6000446184610120CDE90004CDE902040494AD
:102A7000CDE90540079469460A480894FEF776FEBA
:102A800008B1FDF759FD099409A906480A94FEF713
:102A9000DBFC002801D0FDF74FFD0CB010BD00009D
:102AA000000001406004002010B58CB0242168466D
:102AB000FDF7E3FC00241548099413490A94C0E982
:102AC00000144FF6FF71C0E90241046184610120E6
:102AD000CDE90004CDE902040494CDE90540079452
:102AE00069460A480894FEF741FE08B1FDF724FD47
:102AF000099409A905480A94FEF7A6FC002801D00C
:102B0000FDF71AFD0CB010BD00040040A804002021
:102B100010B58CB024216846FDF7AFFC00241548A1
:102B2000099413490A94C0E900144FF6FF71C0E9F3
:102B30000241046184610120CDE90004CDE9020471
:102B40000494CDE90540079469460A480894FEF7C5
:102B50000DFE08B1FDF7F0FC099409A905480A9497
:102B6000FEF772FC002801D0FDF7E6FC0CB010BDAA
:102B700000080040F00400201CB500240F48009419
:102B80000D49019401604FF4D261C0E901144CF287
:102B900050318461C160FEF79FFC08B1FDF7CCFCA9
:102BA0000094694605480194FEF74EFC002801D0C8
:102BB000FDF7C2FC1CBD00000010004038050020DD
:102BC00010B58AB000242348049405940694079411
:102BD000089409940094019402941D49039401609F
:102BE0005321C0E9011447F23051C0E90314802198
:102BF000C0E90541FEF770FC08B1FDF79DFC4FF4FC
:102C00008050049004A91348FEF742FD08B1FDF777
:102C100093FC1048FEF737FF08B1FDF78DFC0894D0
:102C200008A90C480994FEF70FFC08B1FDF784FCD5
:102C30000120CDE900400294002269460548039432
:102C4000FEF792FE002801D0FDF776FC0AB010BD19
:102C5000000401408005002010B588B01C216846A2
:102C6000FDF70BFC1648154900240160A721C0E9B7
:102C7000011440F2A461C0E903148461FFF72DF947
:102C800008B1FDF759FC6020CDE900040294002250
:102C900069460B480494FFF7BAF808B1FDF74CFCFD
:102CA000042269460648FFF7B2F808B1FDF744FC74
:102CB0000348FFF751F808B010BD00000040014084
:102CC000C80500200D4810B50B4901600C49416052
:102CD00000214FF40052C0E90212D21002610C220E
:102CE000C0E90521C161FFF701FB002803D0BDE861
:102CF0001040FDF721BC10BD00480040A006002098
:102D0000A0860100FEE7FEE710B50446084602F083
:102D10009DF89FED0A1B53EC112B02F0E7F89FED95
:102D2000091B53EC112B01F011FE02F04BF8024687
:102D30002046BDE81040002100F0E2BF9A99999921
:102D4000999901400000000000C0634010B504469E
:102D50002DED028B0021B0EE408A084600F0F4FF12
:102D6000B0EE480A00F06CFF204602F06FF89FEDCD
:102D7000331B53EC112B02F0B9F89FED321B53ECCF
:102D8000112B01F0E3FD02F01DF80446024600217C
:102D9000084600F0B5FF22460021012000F0B0FFF8
:102DA00022460021022000F0ABFF22460021032032
:102DB00000F0A6FF22460021042000F0A1FF2246D9
:102DC0000021052000F09CFF22460021062000F093
:102DD00097FF22460021072000F092FF22460021A3
:102DE000082000F08DFF22460021092000F088FF16
:102DF000224600210A2000F083FF224600210B20FA
:102E000000F07EFF224600210C2000F079FF2246D0
:102E100000210D2000F074FF224600210E2000F05A
:102E20006FFF224600210F2000F06AFFBDEC028BED
:102E30004FF4FA70BDE81040FDF7DCBB3333333399
:102E400033330340000000000020624001220F499C
:102E50000F48FFF7BBFA0F4C0F4DE08EE860208F54
:102E60002861A08E6861608EA861A08E6968401A92
:102E7000A862608EA968401A6862208F2968401A8B
:102E80002862142000F08EFEEFE700000000002012
:102E9000A0060020D800002028000020DFF87C8356
:102EA0000027DD4D98F81C0044462830C1B20120AF
:102EB000FFF72AFFE069C0F18200C1B20220FFF7EC
:102EC00023FFA946DFF858A3D64ED74DDFF85CB3F1
:102ED000B9F83C00C82803D0B0F5C16F7DD097E1A8
:102EE0004446D8F82020D4E9091001F069F9E062DD
:102EF00000687C42A0420EDA012211462846FDF706
:102F00008BFC002202212846FDF786FCD8F82C0015
:102F10000068404210E0B8420DDD00220121284641
:102F2000FDF77AFC012202212846FDF775FCD8F84E
:102F30002C00006800E0002031688863D8F82C007D
:102F40004068A0420EDA002210212846FDF764FCFA
:102F5000012220212846FDF75FFCD8F82C004068AC
:102F600041420EE0B84210DD012210212846FDF753
:102F700053FC002220212846FDF74EFCD8F82C00F7
:102F80004168DAF80000816303E0DAF800100020FD
:102F90008863D8F82C008068A0420EDA0122042150
:102FA0002846FDF739FC002208212846FDF734FCAD
:102FB000D8F82C008068414211E0B8420EDD0022B2
:102FC00004212846FDF728FC012208212846FDF7A8
:102FD00023FCD8F82C00816801E02AE00021306849
:102FE0004163D8F82C00C068A0420DDA00224021CD
:102FF0002846FDF711FC012280212846FDF70CFC34
:10300000D8F82C00C068F1E04446B8420CDD01223B
:1030100040212846FDF700FC002280212846FDF7CC
:10302000FBFBE06AC168F0E0DBF8001000204863B9
:10303000EEE000221146104601F0C2F87C49C8F8C3
:103040002C004446086801282FD17A4847F23152B3
:1030500000685043784A12681044401C00EE100A81
:10306000B8EE400ADFED750A754847F2315260EE5E
:10307000200A00685043734A12681044401C00EE56
:10308000100A714AB8EE400A80EE801A00EE100A6B
:10309000B8EE400A82ED001ADFED6C0A6C4880EE53
:1030A000801A80ED001A002008606748006802F06E
:1030B00047F99FED681B53EC112B02F057F801F014
:1030C00051FE01F0ACFE9FED651B53EC112B01F09E
:1030D000F1FC9FED641B53EC112B01F007FF01F095
:1030E00041FEE0612830C1B20120FFF70DFEE0692A
:1030F000C0F18200C1B20220FFF706FEE06A00685C
:1031000000280EDA012211462846FDF785FB002231
:1031100002212846FDF780FBE06A0068400040423B
:103120000CE0002201212846FDF776FB0122022156
:103130002846FDF771FBE06A00684000316888634B
:10314000E06A406800280EDA002210212846FDF7C8
:1031500063FB012220212846FDF75EFBE06A406800
:10316000400041420CE0012210212846FDF754FBAB
:10317000002220212846FDF74FFBE06A406841000D
:10318000DAF800008163E06A806800280EDA012224
:1031900004212846FDF740FB002208212846FDF7C0
:1031A0003BFBE06A8068400040420CE000220421C2
:1031B0002846FDF731FB012208212846FDF72CFBAC
:1031C000E06A8068400031684863E06AC0680028AF
:1031D0000EDA002240212846FDF71EFB0122802145
:1031E0002846FDF719FBE06AC068400041420CE048
:1031F000012240212846FDF70FFB002280212846AE
:10320000FDF70AFBE06AC0684100DBF8000041639B
:10321000012000F0C7FC5BE6D80000202800002059
:1032200010060020C80500200014024058060020A7
:103230001C00002010000020040000200000C842F4
:10324000140000200800002020000020B54471492F
:10325000240000209A99999999991F40CDCCCCCC03
:10326000CCCC1C40000000000080564010B550201F
:1032700080F31188BFF34F8FBFF36F8F01F06CFAAB
:1032800018B104494FF080500860002080F3118885
:1032900010BD000004ED00E030B593B03021684669
:1032A000FDF7EBF814210CA8FDF7E7F81D48002501
:1032B000016841F080510160006800F08050119079
:1032C0001948016841F4804101600068022400F45B
:1032D00080401190012003901020049000940694E7
:1032E0000820CDE90750A820CDE9090404200B905F
:1032F0006846FDF7F1FE08B172B6FEE70CA90F2093
:1033000081E831004FF4A0500F904FF4805010909E
:1033100005210CA8FDF7D4FD002801D072B6FEE708
:1033200013B030BD403802400070004002480168D0
:1033300041F470010160704788ED00E00148FEF73C
:1033400057BC0000380500200148FEF751BC0000C2
:10335000E40600200148FEF74BBC00008005002079
:1033600010B50448FEF744FCBDE810400248FEF7E3
:103370003FBC00008005002058060020F0B5026820
:10338000254C264D264E274F274B4FF0804CA04210
:1033900009D0604507D0A84205D0B04203D0B8425A
:1033A00001D0984204D122F0700E4A6842EA0E021F
:1033B000A0421BD0604519D0A84217D0B04215D00A
:1033C000B84213D0984211D0184DA8420ED0184DD3
:1033D000A8420BD0174DA84208D0174DA84205D0DF
:1033E000164DA84202D0164DA84203D122F44075D2
:1033F000CA682A434D6922F080022A4302608A6823
:10340000C2620A688262A04201D0984201D1096971
:10341000016301214161F0BD000001400004004052
:1034200000080040000C0040000401400040014042
:10343000004401400048014000180040001C0040CA
:103440000020004010B501F01F030121046A9940DB
:103450008C430462016A9A401143016210BD10B5A9
:10346000846842EA032224F47F440A4322438260B0
:1034700010BD826822F070020A4342F007018160A9
:1034800070470000F0B5026A22F001020262036A8E
:1034900042688469124E24F073050C682C4323F0B3
:1034A00002058B682B430D4DA84201D0B04205D1D7
:1034B00023F00807CB683B4323F00403A84201D064
:1034C000B04205D14D6922F4407215438A692A43FE
:1034D00042608461496841630362F0BD00000140BD
:1034E00000040140F0B5026A22F010020262026A92
:1034F000436884690D6824F4E64444EA05248D6831
:1035000022F0200242EA05120F4D104EA84201D0CF
:10351000B04206D1CF6822F0800242EA071222F0C0
:103520004002A84201D0B04207D14D6923F4406364
:1035300043EA85038D6943EA8503436084614968F2
:1035400081630262F0BD0000000001400004014000
:10355000F0B5026A22F480720262026A4368C469AA
:1035600022F4007224F073050C68124E2C438D680F
:1035700042EA05220E4DA84201D0B04206D1CF68E2
:1035800022F4006242EA072222F48062A84201D0BB
:10359000B04207D14D6923F4405343EA05138D69C6
:1035A00043EA05134360C4614968C1630262F0BD28
:1035B000000001400004014030B5026A22F480524C
:1035C0000262046A4268C3690D6823F4E64343EA71
:1035D00005238D6824F4005444EA0534084DA842BC
:1035E00002D0084DA84204D14D6922F4804242EA3B
:1035F00085124260C36149680164046230BD000005
:10360000000001400004014010B5036A046A24F080
:1036100001040462846924F0F00444EA021423F0F3
:103620000A020A438461026210BD000070B5046A98
:1036300024F0010404628469056A154EB04214D076
:10364000B0F1804F11D0134EB0420ED0124EB042A6
:103650000BD0124EB04208D0114EB04205D0114EE0
:10366000B04202D0104EB04203D124F00304144300
:1036700001E044F001041A0724F0F00444EA126265
:1036800025F00A0301F00A0119438261016270BD4D
:10369000000001400004004000080040000C004011
:1036A00000040140004001400018004010B5036ACA
:1036B00023F0100303628369046A23F4704343EA2E
:1036C000023224F0A00343EA01118261016210BDBD
:1036D00030B5046A24F0100404628469056A24F495
:1036E000407444EA022222F470444FF6FF7202EA68
:1036F00003322243A02425F0A00304EA0111194358
:103700008261016230BD10B5806B0021C185C1842A
:10371000FEF7B2FC10BD01680C3151E8002F22F415
:10372000907241E80023002BF5D10168143151E873
:10373000002F22F0010241E80023002BF5D1016B9C
:10374000012909D101680C3151E8002F22F0100243
:1037500041E80023002BF5D1202180F83E10002104
:103760000163704708B590F83E10222901D002206D
:1037700008BD82684FF480539A4201D1016921B19A
:10378000816A9A421BD04AB10AE00268816A526893
:10379000C2F308020A80816A891C08E0026972B1DA
:1037A0000268526802F07F020A70816A491C8162D5
:1037B000C18D491E0904090CC18503D019E00268B6
:1037C0005268F1E70168CA6822F02002CA60016805
:1037D000CA6822F48072CA6001684A6922F0010254
:1037E0004A61202180F83E10016B012903D0FEF7C9
:1037F00003FE002008BD0021016301680C3151E87F
:10380000002F22F0100241E80023002BF5D10168BF
:103810000A68D20602D50A6849680091818DFEF7D0
:103820002AFCE6E770B5044600680169E26821F405
:103830004051114301612169A068E269084361694F
:10384000114308432168CA6849F20C639A43024352
:10385000CA6020684169A26921F440711143416145
:1038600031492068884202D03049884202D1FDF7B0
:10387000F1FB01E0FDF7DEFBE2690023192164257D
:103880003226B2F5004F626828D0A0FB0101930FE9
:103890009200FCF749FD0146B0FBF5F06FF018020D
:1038A000504301EB800006EB0010B0FBF5F000F098
:1038B000F002B1FBF5F002EB0012B1FBF5F06FF096
:1038C0001803584301EB800006EB0010B0FBF5F045
:1038D00000F00F0021681044886070BDA0FB01015A
:1038E00092185B41FCF720FD0146B0FBF5F00201A8
:1038F000B1FBF5F06FF01803584301EB800006EBC5
:10390000C000B0FBF5F000F0F80002EB4002B1FBA4
:10391000F5F0584301EB800006EBC000B0FBF5F07A
:1039200000F00700D6E7000000100140001401403D
:1039300081628285C28500210164222280F83E20B6
:1039400080F83C10016921B10168CA6842F48072B4
:10395000CA6001684A6942F001024A610068C168B0
:1039600041F02001C16000207047000070B50024C4
:103970000C4D0D48FEF786FB02E0641CAC4204D8F7
:103980000948FEF77AFB2028F7D1002402E0641CE6
:10399000AC4206D8012205490348FEF717FD00286E
:1039A000F5D170BDFFFF0100A0060020000000203F
:1039B000FEE70907090E002804DB00F1E02080F88B
:1039C0000014704700F00F0000F1E02080F8141D93
:1039D00070470000000000002DE9F0412DED020BC2
:1039E0009FED3D0B2DED028B9FED3D8BDDE90254EC
:1039F000C4F30A50A0F2FF36142E37DA002E18DA7C
:103A000053EC102B9DED020B51EC100B00F09EFFC0
:103A100053EC182B01F068FB57D2002CA4BF0024F4
:103A2000254652DA24F00040284318BF2E4C4CD0D3
:103A30001AE02E4820FA06F704EA070028431FD0B0
:103A400053EC102B9DED020B51EC100B00F07EFFA0
:103A500053EC182B01F048FB37D2002C03DA4FF45B
:103A60008010F0400444BC4300252EE0332E07DCD8
:103A7000A6F114004FF0FF3121FA00F73D4206D1C4
:103A80009DED020BBDEC028B02B0BDE8F08153EC62
:103A9000102B9DED020B51EC100B01F05BFB53EC76
:103AA000182B01F021FB10D2002C0DDA142E08BFC8
:103AB000641C09D0C6F13400012101FA00F0284449
:103AC000A84238BF641C0546BD43CDE902549DEDB4
:103AD000020BD7E7000000009C7500883CE4377EAD
:103AE00000000000000000000000F0BFFFFF0F001A
:103AF00070470000FDF722F9FFF7CEFBFEF7B0FE9E
:103B0000FFF7E0F8FFF738F8FFF7A6F8FEF734FF05
:103B1000FEF760FFFEF792FFFEF7C6FFFEF7F8FF25
:103B2000FEF70AFFFFF74CF804211548FEF726FAC6
:103B300000211348FEF722FA1248FDF769FD04211F
:103B40001148FEF71BFA00211048FEF717FAFEF79E
:103B5000F3FE5A209FED0E0AFFF7F8F80D494FF0DB
:103B6000FF30096808610B48FDF752FD0021094844
:103B7000FDF7B8FFFEF756FE00F01BF8FEE7000069
:103B8000C805002038050020100600205806002037
:103B9000000070428005002001460020842900D0EA
:103BA000C81C704710B500B9012000F071FC00205E
:103BB00010BD10B500F092FC002010BD7FB50D4681
:103BC00004464169B0F9080081B1A16971B1FFF7FC
:103BD000E3FFD4E905128DE80700D4E900102B4675
:103BE000226900F08EFD039004B070BDFFF7D4FF92
:103BF00003A9CDE90001208A2B4682B2D4E9001046
:103C000000F052FD012801D00020EDE70398EBE71A
:103C10003EB542F210748DF80400012301AA802100
:103C200006480094FCF7B8FF012302AA802103484C
:103C30000094FCF7C1FE9DF808003EBD0C04002076
:103C400070B510EE100A2DED028B01F079FB9FED9F
:103C5000241B53EC112B01F049F900F045FE9FEDB8
:103C6000228B01F06DFB41EC100B51EC180B53EC67
:103C7000102B00F01FFF9FED1E1B53EC112B01F0CA
:103C800075FA9FED1D1B53EC112B00F05FFE41EC0C
:103C9000100BFFF7A1FE51EC100B01F093F8C5B229
:103CA0000020FFF7B5FF044600F07F0040F0100150
:103CB000002000F049F82946FE2000F045F8214692
:103CC000002000F041F80220FCF794FCBDEC028BD0
:103CD00044F0A101BDE87040002000F035B80000BC
:103CE000713D0AD7A370ED3F0000000084D7B740B4
:103CF000000000000000F03F000000000000E03F76
:103D000070B5044606200E4600EB84001546C9B285
:103D1000C0B200F019F8072000EB8400C0B2C6F36F
:103D2000072100F011F8082000EB8400E9B2C0B2CE
:103D300000F00AF8092000EB8400C5F30721BDE874
:103D40007040C0B2AFF300801CB502238DF80400B0
:103D500042F210708DF80510009001AA80210248EF
:103D6000FCF71AFF1CBD00000C0400202DE9F041F7
:103D7000184C0F460546E6682068001D00F0C0FAA2
:103D800038B9206890F82C100120884021698143BF
:103D90002161681C07D137B12168BDE8F0410E48A8
:103DA000091D00F0F1BA20683544B542456021682C
:103DB00005D2A06BBDE8F041091D00F0CDBA606BE3
:103DC000091D00F0C9FAA06A854200D2A562BDE8CB
:103DD000F081000070000020080800202DE9F0416B
:103DE000054600F0DDFA2E4CA068401CA06020685B
:103DF0002C4F10B1606940B32DE02560A068012808
:103E000029D1002606EB860007EB800000F096FA29
:103E1000761C072EF6D323488C3000F08FFA214809
:103E2000A03000F08BFA1F48B43000F087FA1D482C
:103E3000C83000F083FA1B48DC3000F07FFA1948E4
:103E40008C3060631430A06305E02068E96AC06AC2
:103E5000884200D82560606A401C6062E96A0120DF
:103E6000226988401043206101EB810007EB80004C
:103E7000291D00F089FA00F0B3FA606900280CD01F
:103E80002068E96AC06A884207D207494FF080502B
:103E90000860BFF34F8FBFF36F8FBDE8F081000064
:103EA000700000202C07002004ED00E010B504464F
:103EB00090F8510058B101280CD002280FD05020A2
:103EC00080F31188BFF34F8FBFF36F8FFEE7206B36
:103ED00000F09AFA2046BDE8104000F095BA10BDF7
:103EE00010484FF47051420706D0C01D0D4920F014
:103EF0000700411AC1F570510B4A00230144C2E981
:103F000000030839183A21F0070111604B600B607B
:103F10000B1AC0E9001393604FF0004053605061EA
:103F2000704700001C080020C4000020144E154CEF
:103F3000A6F1C8074FF08058DFF84C9012E000BFA0
:103F400000F02EFAF068C568281D00F0D9F9A068C5
:103F5000401EA0606068401E606000F041FA284684
:103F6000FFF7A4FF60680028EAD138680128F9D972
:103F7000C9F80080BFF34F8FBFF36F8FF2E70000E7
:103F8000F40700207000002004ED00E02DE9F04768
:103F90009A46DDE9098481466FF00303206B03EB49
:103FA00082021044089E20F00707780707D05020AF
:103FB00080F31188BFF34F8FBFF36F8FFEE70025AB
:103FC00061B1002023180A5C83F834200A5C12B126
:103FD000401C1028F6D384F8435001E084F8345094
:103FE000072E00D30626E662C4E91165201D00F005
:103FF000B0F904F1180000F0ACF92461C6F1070033
:104000006462A061E56484F85050524649463846DF
:1040100000F0C0F82060B8F1000F01D0C8F80040EF
:10402000BDE8F08730B5114900E011460A688242C8
:10403000FBD34B685C18844203D140681844486045
:10404000084643681C18944209D1084C183C24685F
:10405000A24209D052681A4442600A68126802609B
:10406000814200D0086030BD0460F9E7C400002040
:104070000648416B096829B1416BC968C96849683C
:10408000816270474FF0FF31FAE7000070000020B6
:1040900008484068401C4FF0500080F3118804D05D
:1040A000BFF34F8FBFF36F8FFEE7BFF34F8FBFF3A9
:1040B0006F8FFEE7CC0000202DE9F0410546002778
:1040C00000F042FA324E306808B9FFF709FF706914
:1040D00005424ED1C5B3083568070ED005F007007C
:1040E000C0F108000544680707D0502080F311880C
:1040F000BFF34F8FBFF36F8FFEE72DB3706885421C
:1041000037D82348183001460C6801E020460C4699
:104110006168A94202D221680029F7D131688C4236
:1041200027D007682168016060680837411B1029A3
:104130000FD96019420708D0502080F31188BFF3CF
:104140004F8FBFF36F8FFEE713E041606560FFF7AD
:1041500069FF61687068401A7060B268904200D26E
:10416000B060706901430020C4E90001F068401CA0
:10417000F06000F057FB780707D0502080F31188DB
:10418000BFF34F8FBFF36F8FFEE73846BDE8F08176
:10419000AC00002010B5031F4FF080741C601B1F83
:1041A00021F001011960191F044B0B6014390A60DA
:1041B000091F6FF0020244380A6010BD91400008E8
:1041C00010B5064C4318401A991A2160991861607D
:1041D0008118801AC4E90210204610BD9001002009
:1041E000C27D46491AB1002081F852007047012271
:1041F00081F85220B0F80120C2F30A0221F8322FD0
:104200008278C378D20842EA4312C2F30A024A8093
:10421000C2780379920942EA8302437942EA83220F
:10422000C2F30A028A8042798379520842EAC312B1
:10423000C2F30A02CA808279C379120942EA0312E0
:10424000C2F30A020A81C279037AD20942EA43021E
:10425000437A42EA4322C2F30A024A81427A837ACB
:10426000920842EA8312C2F30A028A81827AC37AEE
:10427000520942EAC302CA818289C2F30A020A824F
:10428000427B837BD20842EA4312C2F30A024A828B
:10429000827BC37B920942EA8302037C42EA832247
:1042A000C2F30A028A82027C437C520842EAC312A9
:1042B000C2F30A02CA82427C1209837C42EA0312D8
:1042C000C2F30A020A83827CC37CD20942EA430217
:1042D000037D42EA4322C2F30A024A83027D437D00
:1042E000920842EA8312C2F30A028A83427D807DE9
:1042F000520942EAC000C88301207047D80000205C
:10430000D0E9013201699A60D0E901235A604A6814
:10431000824201D182684A60002202610868401E20
:104320000860086870470000034B036003F1540005
:104330000860802010607047B801002000F108017B
:104340004FF0FF32C0E90112C1600161002101603C
:10435000704700210161704730B50B685A1C02D0CC
:1043600000F1080202E0026904E022465468256870
:104370009D42FAD953684B6099608A605160086128
:104380000168491C016030BD42684A6093688B60D7
:1043900093685960916008610168491C0160704729
:1043A000502080F31188BFF34F8FBFF36F8F0A49FE
:1043B0004868401C486001280CD10848006810F08B
:1043C000FF0F07D0502080F31188BFF34F8FBFF34A
:1043D0006F8FFEE770470000CC00002004ED00E086
:1043E0000849486828B1401E486001D180F311880F
:1043F0007047502080F31188BFF34F8FBFF36F8F4A
:10440000FEE70000CC00002070B500282AD0164D31
:10441000A0F1080460686969084207D1502080F360
:104420001188BFF34F8FBFF36F8FFEE722683AB159
:10443000502080F31188BFF34F8FBFF36F8FFEE7DB
:104440008843606000F080F86068696808446860CC
:104450002046FFF7E7FD2869401C2861BDE8704051
:1044600000F0E0B970BD0000AC0000204FF0E0208B
:1044700000210161816105494FF47A720968B1FB3D
:10448000F2F1491E41610721016170476C00002073
:1044900010B5020014D00F48006B38B1502080F3E3
:1044A0001188BFF34F8FBFF36F8FFEE700F04CF81A
:1044B00000211046FFF75AFC00F0B4F9002807D19C
:1044C00005494FF080500860BFF34F8FBFF36F8FE7
:1044D00010BD00007000002004ED00E010B586B0B3
:1044E0000024039405AA04A903A80494FFF71CFF61
:1044F000DDE903010094CDE9011000230EA110486D
:10450000059A00F0FEF80F490028C86211D050202B
:1045100080F31188BFF34F8FBFF36F8F4FF0FF30E1
:10452000886201204861CC6006B0BDE8104000F010
:1045300041B806B010BD000049444C4500000000E1
:104540002D3F0008700000200248016B491C0163E8
:1045500070470000700000201448016B11B1012168
:10456000C16170470021C1610169B1FA81F1C1F1F6
:104570001F0101EB81020E4951F822306BB101EBB2
:10458000820101F108034A6852684A609A4201D1E7
:1045900052684A60D16801607047502080F31188EA
:1045A000BFF34F8FBFF36F8FFEE700007000002056
:1045B0002C0700201CB537480168374A914207D1C3
:1045C000502080F31188BFF34F8FBFF36F8FFEE74A
:1045D00000683149491E884207D1502080F3118874
:1045E000BFF34F8FBFF36F8FFEE72C490878019020
:1045F000FF20087008788DF800009DF800009DF8F5
:10460000002000F0F000904207D0502080F3118885
:10461000BFF34F8FBFF36F8FFEE79DF80000204C74
:1046200000F0500020700720A06005E09DF80020F9
:1046300052008DF80020401E9DF800201206F5D48F
:10464000A060032807D0502080F31188BFF34F8F5C
:10465000BFF36F8FFEE74FF44070A06001980870C1
:104660000C482030016841F470010160016841F09C
:1046700070410160FFF7FAFE00206060FBF7F8FD73
:104680000848016841F040410160FBF7DDFD002072
:104690001CBD000000ED00E071C20F4100E400E02D
:1046A000CC00002034EF00E02DE9FF5F8346DDE918
:1046B0000E87994616468A469000FFF7FDFC0500D6
:1046C0001CD05420FFF7F8FC040014D00020256310
:1046D00084F85100CDE90240CDE900874B463246CF
:1046E00051465846FFF752FC2046FFF777FB012062
:1046F00004B0BDE8F09F2846FFF786FE4FF0FF307C
:10470000F6E7F0B585B0DDE90B640A9DA6B1DCB132
:10471000542700972663022684F85160002604AFD0
:10472000CDE90246CDE90057FFF730FC2046FFF700
:1047300055FB049805B0F0BD502080F31188BFF3FD
:104740004F8FBFF36F8FFEE7502080F31188BFF3C8
:104750004F8FBFF36F8FFEE72DE9F0412F4C0026FE
:10476000206B28B1A069401CA0613046BDE8F081F3
:10477000E5686D1CE56013D1606B006838B15020AE
:1047800080F31188BFF34F8FBFF36F8FFEE7606B2D
:10479000A16B6163A063206A401C2062FFF768FC84
:1047A000A06ADFF87C80854209D3606B0068A0B105
:1047B000606BC068C7687868854211D2A0622068C3
:1047C000C06A00EB800158F82100012800D90126B9
:1047D000E0690028C9D00126C7E74FF0FF30EDE7B8
:1047E000381DFFF78DFDB86A18B107F11800FFF703
:1047F00087FDF96A0120226988401043206101EB9E
:10480000810108EB8100391DFFF7BEFDF86A2168C0
:10481000C96A8842C9D30126C7E70000700000209A
:104820002C0700202DE9F0472C4D00242746286B4B
:1048300038B1FFF7B5FD286B401E2863286B40B1E7
:1048400046E0502080F31188BFF34F8FBFF36F8F86
:10485000FEE7A968224E0120D1B3A6F1B409804633
:104860003068E8B1F068C46804F11800FFF748FD4B
:10487000201DFFF745FDE06A2A6908FA00F111439F
:10488000296100EB800109EB8100211DFFF77CFD10
:10489000E06A2968C96A8842E2D3C5F81C80DFE76C
:1048A0000CB1FFF7E5FBAC6944B14646FFF754FF96
:1048B00000B1EE61641EF9D10020A861E86938B149
:1048C0000849012738070860BFF34F8FBFF36F8F88
:1048D000FFF786FD3846BDE8F08700007000002035
:1048E000E007002004ED00E021F00042A2F1605258
:1048F000B2F5801F01F0004328BFD2F17F6C0BD9C5
:104900005FEA001C43EAC20242EB507018BF7047D6
:1049100028BF20F001007047B2F5801FBCBF1846C9
:1049200070474FEA410C1CF5001F02D2084600F008
:104930007DBD70B500F084FB00000089FFF7F6BF75
:104940004FF00040A0F580007047000010B591EADC
:10495000030F48BF83F0004300F11084841A71EB09
:10496000030C05D2121943EB0C03001B61EB0C0185
:10497000DFF824E14FEA1154A4EB135C1EEA430F65
:1049800018BF9EEA445F73D023EA0E03DCF1200EC9
:1049900021EA045143F4801332D322FA0CFE10EBC7
:1049A0000E0023FA0CFE41EB0E01CCF1200E03FAAF
:1049B0000EFE10EB0E0051F10001B1F5801FCCF19D
:1049C000200E32D201EB045112FA0EF2BDE8104073
:1049D00058BF7047401C38BF5FEA420218BF70479B
:1049E000002814BF20F0010041F100014FEA41030B
:1049F00013F5001F38BF7047A1F1C04100F06EBB36
:104A0000012A43EB0302ACF1200CDCF11F0E32BF94
:104A10004FF0000E23FA0CF310EB030041EB0451AE
:104A2000B4EB115FD0D0A1EB045101F5801149081E
:104A30005FEA300001EB04510ED350F1000038BFA3
:104A400012FA0EFE08D1BDE81040C9E7401C38BF7D
:104A50005FEA4202CAD1C3E7BDE810404FEA410312
:104A600013F5001F38BF7047A1F1C04100F036BBFD
:104A70009EEA445F08D011EA5E0FBDE8104004BF13
:104A800001F0004100207047BDE8104070B500F013
:104A9000D7FA00BF64FBBE3E0000E0FF491058BFDC
:104AA000C1F140415B1058BFC3F140438B42EFF36B
:104AB000008070472DE9C04130B4DFF8A0C23CEA65
:104AC000111418BF3CEA131400F0EC8081EA0305CE
:104AD0001CEA111444EAD57418BF1CEA131500F03F
:104AE000C780A4EB05044FF0004545EAC12145EA23
:104AF000C32341EA505143EA525304F17F7499426F
:104B000004F500344FEAC0204FEAC22208BF9042A9
:104B100000F09C804FEA13650FF24016765D4FEA75
:104B2000134506FB05F7C7F1807706FB07F74FEA49
:104B3000D737A7FB03687642C8F58038A7FB06CEB7
:104B400038BFA8F1010807FB08E64FF0000EA6FBEE
:104B5000028CE6FB03CEDCF1000CCEF1004E38BF38
:104B6000AEF1010EA6FB0C584FF000074FF0000508
:104B7000E6FB0E87A1FB08C6A0FB07CE16EB0E06D0
:104B800045F10005E1FB076515F1E04E7EBFA4F598
:104B900080345FEA46066D4116F1800745F1000555
:104BA0004FEA17274FEA066647EA0567A6F1DE4691
:104BB000B6F1805F4FEA15251FD9384624F0010C65
:104BC00005EBC471BCF1FE6F01EB0C1102D8F0BC17
:104BD000BDE8008124425CBF01F5801E9EEAC47FCF
:104BE00002D4F0BCBDE80081244238D4F0BCA1F16D
:104BF000C041BDE8004100F071BA4FEAD22242EA5A
:104C000043524FEAD323A7FB02864FEAD02040EA63
:104C1000415007FB03661EEA0E0F4FEAD12105FB48
:104C2000026658BFA6EB0056B6EB00564FEA520E8E
:104C30004EEAC37E18EB0E0E56EB530EBDD518EBA5
:104C400002085E417F1C55F10005B6E74FF4801560
:104C50004FF000074FF000064FF00008ADE7F0BC42
:104C60004FF0000001F1C04101F00041BDE80081BA
:104C700011EA0C1F0CEA131500D00CE013EA0C1F0C
:104C800000F025804FF00000F0BC81EA030101F044
:104C90000041BDE80081F0BCBDE8004181EA0301AC
:104CA00000F01CBAF0BCBDE8004170B500F0C8F9D6
:104CB000097EFC3E00F007B881EA03014FF00000D6
:104CC00001F00041704781EA030100F007BAF0BC2F
:104CD000BDE800414FF0000021497047FFFDFBF99E
:104CE000F7F5F4F2F0EEEDEBE9E8E6E4E3E1E0DE1F
:104CF000DDDBDAD8D7D5D4D3D1D0CFCDCCCBCAC891
:104D0000C7C6C5C4C2C1C0BFBEBDBCBBBAB9B8B7B7
:104D1000B6B5B4B3B2B1B0AFAEADACABAAA9A8A8AA
:104D2000A7A6A5A4A3A3A2A1A09F9F9E9D9C9C9B78
:104D30009A99999897979695959493939291919023
:104D40008F8F8E8E8D8C8C8B8B8A898988888787B4
:104D50008685858484838382828181800000FF0729
:104D60000000F87F4FEA41034FEA5353A3F58063F5
:104D7000D3F11E03C8BFD3F1210C0CDD4FF000426C
:104D800042EAC12242EA505232FA03FC8CEAE17C48
:104D9000ACEBE1707047102BC4BF0020704703F5E7
:104DA000787CBCF1FF3F04D06FF0004282EA210022
:104DB000704770B500F044F9499224800020704794
:104DC000F2E700004FEA1153A3F58063D3F11E030D
:104DD000A8BFD3F1200C08DB4FF0004242EAC12209
:104DE00052EA505232FA03F0704709420BD4102BAA
:104DF000C4BF0020704703F5787CBCF1FF3F05D0AD
:104E00004FF0FF3070474FF00000704770B500F072
:104E100017F900BF4992248000207047F0E710F096
:104E2000004248BF4042B0FA80F310FA03F10AD0C2
:104E3000C3F11D0303F580634FEA415002EB0352B7
:104E400002EBD12170474FF000007047B0FA80F3B9
:104E500010FA03F10AD0C3F11D0303F580634FEA92
:104E600041504FEA035202EBD12170474FF000004E
:104E70007047000051EA030C17D41CF5801F58BF7F
:104E8000BCF5801F00F10680994218BF704708BF2B
:104E90009042704707D711F5801F58BF13F5801F48
:104EA00019D499427047894270471CF5801F08D574
:104EB000BCF5801FF7D58B4218BF704708BF8242F0
:104EC00070474FF4001C1CEB410F38BF1CEB430F25
:104ED00001D28B42704770B500F0B2F892244900BD
:104EE0004FF000514FF08053FFF7D8BDDFF848C1B5
:104EF00070B51CEA111E1EBF1CEA13159EEA0C0FAA
:104F000095EA0C0F00F06F8081EA030423EA4C134A
:104F10004EEAD47E21EA4C1141F4801143F480130F
:104F2000AE44A1FB024CA0FB0365AEF17F7E3619B7
:104F300055EB0C05A1FB034C4CF10003A0FB021C3C
:104F400016EB0C06654153F10003094218BF46F009
:104F5000010613F4007F0BD14FEA03314FEA05300D
:104F6000340341EA155140EA16506FF003020AE09B
:104F70004FEAC3214FEAC520F40241EA555140EA05
:104F800056506FF0020202EB2E4201EB025585EA09
:104F9000CE710AD05FEA440C18BF24F0004450F1EF
:104FA000000041F1000120EAD47040F2FE7C62452D
:104FB00000D270BDA84214BF4FF080444FF040446F
:104FC000002E08BF0024BEF1806FA8BFA1F1C04130
:104FD000BDE8704080F282804FF0000001F1C041D6
:104FE00001F0004170479EEA0C0F0CEA131518BF40
:104FF00095EA0C0F06D04FF0000081EA030E0EF088
:10500000004170BD00F01CF88900013E00F007B8B7
:1050100000F009B84FEA430C5FEA5C5C08D081EA13
:10502000030100F05BB84FEA410C5FEA5C5CF6D12B
:105030004FF00000014970470000FF070000F87FB3
:105040000EF1020E2EF0030E5EF8046B364205D40C
:10505000012A43EB030515F5001F12D8012841EB87
:10506000010C1CF5001F0CD80ED14FEAD17C15F5B0
:10507000001F0CEB4C0C0CF1020C08BF4CEBD37C6A
:1050800004E04FF0080C01E04FEAD37C0CEB4C0538
:1050900026FA05F606F00706B6F1040C06D20EEB6A
:1050A000860CBDE870404CF0010C6047DFE80CF066
:1050B000090B02024FF000414FF00000A1F5002162
:1050C00070BD19461046012851EB010418BFD4F5F4
:1050D000001484BF002001F0004170BD0808A0F555
:1050E00000114FEA3101704753EA010C17D41CF547
:1050F000801F58BFBCF5801F00F106808B4218BF8F
:10510000704708BF8242704707D713F5801F58BF0A
:1051100011F5801F19D48B4270479B4270471CF5D4
:10512000801F08D5BCF5801FF7D5994218BF70477E
:1051300008BF904270474FF4001C1CEB430F38BF70
:105140001CEB410F01D2994270470FB40CBC03BC59
:10515000FFF7C1BE91EA030F10B581F000413FF5A2
:10516000FDAB83F0004300F009B8000010B591EAF0
:10517000030F48BF83F000433FF5F0AB841A71EB97
:10518000030C07D212198CF0004C43EB0C03001BEC
:1051900061EB0C01DFF8A4E14FEA1154A4EB135CBE
:1051A0001EEA430F18BF9EEA445F00F0B08023EA76
:1051B0006E03524221EA0451C3EB6E0338BF5B1EFB
:1051C000DCF1200E25D322FA0CFE10EB0E0043FA80
:1051D0000CFE41EB0E01CCF1200E03FA0EFE10EB9B
:1051E0000E0051F10001CCF1200E29D412FA0EF27A
:1051F00001EB0451BDE8104058BF7047401C1CBF74
:10520000B2F1004F704700280CBF491C20F001008C
:10521000704712EB020E43EB030218BF4FF0010E72
:105220004EEA4202ACF1200CDCF11E0E54D943FAD6
:105230000CFE10EB0E0051F1FF31CCF11E0ED5D556
:105240000EF1010E12FA0EFE404141EB010101EB9D
:10525000445C5FEA5C5C10D910EBDE7001EB04513A
:1052600038BFBEF1004FBDE8104018BF704700289E
:105270000CBF491C20F00100704730D24FEAD42CFB
:1052800011F5001124F400641BD0B1FA81F20B3A3D
:10529000A41AA41ED2F12003914030FA03F319435B
:1052A000904001EBCC71002C01EB0451BDE81040A3
:1052B000A8BF704701F1C0414FF0000001F000416C
:1052C0007047B0FA80F310FA03F100D110BDE41A70
:1052D000173C4805C90AE4E701EB045110BD491029
:1052E00001EB0451BDE810404FEA300002E04FF0FE
:1052F000000170474A0008BF0042F8D0B2F5001F15
:1053000028BF704701F000414FF0000070479EEA4F
:10531000445F07D011EA5E0FBDE8104004BF0021D2
:1053200000207047BDE8104070B5FFF789FE00BF50
:1053300040DFF63E83F00041104670470000E0FF7A
:1053400043004FEAD30C4FEA3C0C43401FBF4007D9
:105350000CF1605113F0FE4F70471CF0006F03D149
:1053600000200CF0004170470CF0004343EA5070FD
:1053700010B540EACC0000F00EF800BF000000922B
:105380004FEA0001FFF7AABE4FF000414FF00000C6
:10539000A1F5002170470EF1020E2EF0030E5EF80B
:1053A000044B244204D44FEA4102B2F17F4F11D89A
:1053B0004FEA4003B3F17F4F0CD80ED14FEAD07CB7
:1053C000B2F17F4F0CEB4C0C0CF1020C08BF4CEB14
:1053D000D17C04E04FF0080C01E04FEAD17C0CEBEB
:1053E0004C0324FA03F404F00704B4F1040C06D2CD
:1053F0000EEB840CBDE810404CF0010C6047DFE878
:105400000CF0070802024FF00040A0F5800010BD2C
:105410000846420018BFD2F1807288BF00F00040F9
:1054200010BD4FF04070E1EE100A7047FF2141EAD5
:10543000D050C00570470000945400084D2E00085D
:1054400000000000000000008000000000000000DC
:1054500000000000885400089D2E0008FDFF000099
:1054600000000000800000000000000000000000BC
:105470000000000000000000010203040607080904
:1054800000000000010203046D795461736B303237
:105490000000000064656661756C745461736B0094
:1054A000C054000800000020D8000000C40100081B
:1054B00098550008D8000020A8490000E001000825
:1054C00000000000000000000000000000000000DC
:1054D00000000000000000000000000000000000CC
:1054E0000000000000000000FB030000200300009B
:1054F0005203000000000000000000000000000057
:105500000000000014000000000000000000000087
:10551000000000000000000000000000000000008B
:105520000100000010000000000000000024F40052
:10553000000000000000000000000000000000006B
:10554000000000000000000000000000000000005B
:10555000000000000000000000000000000000004B
:10556000000000000000000000000000000000003B
:10557000000000000000000000000000000000002B
:10558000000000000000000000000000000000001B
:08559000AAAAAAAA000000006B
:040000050800018965
:00000001FF
