:020000040800F2
:10000000784700205D0200083F2300087F1E00089B
:100010003D2300088D050008F92D000800000000B0
:100020000000000000000000000000009D0100082A
:100030008F05000800000000F9010008DD26000817
:1000400077020008770200087702000877020008AC
:10005000770200087702000877020008770200089C
:10006000770200087702000877020008770200088C
:10007000770200087702000877020008770200087C
:10008000770200087702000877020008770200086C
:10009000770200087702000877020008770200085C
:1000A000770200087702000877020008770200084C
:1000B000770200087702000877020008770200083C
:1000C000770200087702000877020008770200082C
:1000D000770200087702000877020008B52D0008B3
:1000E000770200087702000877020008770200080C
:1000F00077020008770200087702000877020008FC
:1001000077020008770200087702000877020008EB
:100110007702000877020008AD270008B927000819
:1001200077020008770200087702000877020008CB
:1001300077020008770200087702000877020008BB
:1001400077020008770200087702000877020008AB
:10015000770200087702000877020008770200089B
:10016000770200087702000877020008770200088B
:1001700077020008770200087702000800000000FC
:100180007702000877020008DFF80CD000F0ECF9E5
:1001900000480047392E0008784700202C4B19688A
:1001A0000868B0E8F04F80F30988BFF36F8F4FF015
:1001B000000080F3118870470000000008480068C4
:1001C000006880F308884FF0000080F3148862B65E
:1001D00061B6BFF34F8FBFF36F8F00DF00BF00BF6B
:1001E00008ED00E0DFF80C00016841F470010160E7
:1001F000704700BF88ED00E0EFF30980BFF36F8F19
:10020000134B1A681EF0100F08BF20ED108A20E96A
:10021000F04F106009B44FF0500080F31188BFF325
:100220004F8FBFF36F8F03F091FA4FF0000080F310
:10023000118809BC19680868B0E8F04F1EF0100F6B
:1002400008BFB0EC108A80F30988BFF36F8F704746
:1002500068000020EFF305807047000006488047E3
:1002600006480047FEE7FEE7FEE7FEE7FEE7FEE79B
:10027000FEE7FEE7FEE7FEE79D270008890100088C
:100280002DE9F05F0546002092469B4688460646CB
:10029000814640241BE0284641464746224600F05E
:1002A000F5F853465A46C01A914110D311461846E4
:1002B000224600F0DCF82D1A67EB01084F46224673
:1002C0000120002100F0D3F817EB00094E41201E59
:1002D000A4F10104DFDC484631462A464346BDE826
:1002E000F09F40EA01039B0703D009E008C9121FF1
:1002F00008C0042AFAD203E011F8013B00F8013BE0
:10030000521EF9D27047D2B201E000F8012B491E0B
:10031000FBD270470022F6E710B513460A460446A2
:100320001946FFF7F0FF204610BD2DE9FE4F81EA88
:10033000030404F0004421F0004100944FF0000B4E
:1003400023F0004350EA01045ED052EA03045BD07C
:10035000C3F30A54C1F30A552C44A4F2F3340194B4
:10036000A0FB0254C1F3130141F48011C3F3130342
:1003700043F4801301FB024400FB034E840A970AF6
:1003800044EA815447EA8357A4FB076802958D0A23
:1003900005FB07854FEA932C04FB0C542705029DAF
:1003A0004FEA065847EA1637B5EB08056EEB070C1F
:1003B000870E920E47EA811742EA8312A7FB0201D9
:1003C000B6EB0B0164EB00042B0D43EA0C335E1813
:1003D00044EB1C50DA465146E7FB0201C5F3130417
:1003E0004FEA0B3343EA14534FEA0432019C43EAC9
:1003F0000603A4F10C040294009CCDE900B400F0C3
:1004000064F803B0BDE8F08F00200146F9E70EB5AF
:10041000C10F80EAE0700844CA07002140F233436C
:100420008DE80E000A460B4600F04FF803B000BD01
:1004300070B5C1F30A5201F000450024C1F3130165
:1004400040F2FF3341F480119A4201DA002070BD7E
:1004500040F233439A42A2F2334203DC524200F0AC
:1004600015F800E090402C43F1D0404270BD202AA6
:1004700004DB203A00FA02F1002070479140C2F1FB
:10048000200320FA03F3194390407047202A04DB2D
:10049000203A21FA02F00021704721FA02F3D040FD
:1004A000C2F12002914008431946704710B5141E4E
:1004B00073F1000408DA401C41F1000192185B411D
:1004C0001A4301D120F0010010BD2DE9F04D9246F4
:1004D0009B4611B1B1FA81F202E0B0FA80F220320B
:1004E0009046FFF7C4FF04460F4640EA0A0041EA7F
:1004F0000B0153465A46084313D0114653EA0100F4
:1005000019D0C8F140025046FFF7C0FF05460E461D
:10051000504659464246FFF7AAFF084305D001203E
:1005200004E020463946BDE8F08D0020054346EA48
:10053000E0762C4337430A986305E40AA0EB0800F1
:100540000022FD0A44EA47540A3002D50020014641
:10055000E9E7010510196941DDE90845001969411C
:10056000BDE8F04DA2E70000064C074D06E0E0684C
:1005700040F0010394E8070098471034AC42F6D3EA
:10058000FFF706FE6C3B00088C3B0008FEE7704757
:1005900072B6FEE72DE9F0410446876D00F05CF984
:1005A000064694F835000025022806D080206065B4
:1005B00084F834500120BDE8F0812068016821F002
:1005C000160101602068416921F080014161206CC1
:1005D00008B9A06C20B12068016821F00801016011
:1005E0002068016821F0010101600CE000F034F99D
:1005F000801B052807D920206065032084F835007A
:1006000084F83450D7E720680068C007EED194F82A
:100610005C103F208840B860012084F8350084F8E1
:1006200034500020C7E790F83510022903D080210C
:10063000416501207047052180F835100068016888
:1006400021F0010101600020704700002DE9F84F02
:10065000DFF8BCA10022012503264FF00F090AF1A3
:10066000040BAAF1040E00BF0B6805FA02F4234044
:10067000A34270D10F7907F00307012F01D0022F99
:1006800016D187684FEA420806FA08FC27EA0C07E9
:10069000D1F80CC00CFA08FC4CEA070CC0F808C0F2
:1006A0004768A7430C79C4F3001494403C4344606A
:1006B0000C79E443A4070AD0C4684FEA420C06FA56
:1006C0000CF7BC438F6807FA0CF72743C7600C7917
:1006D00004F00304022C12D1D40800EB840CDCF8E3
:1006E00020405707FF0E09FA07F824EA0804D1F85A
:1006F000108008FA07F848EA0408CCF8208004685B
:100700004FEA420C06FA0CF7BC430F7907F00307D7
:1007100007FA0CF7274307604C6814F4403F70D089
:100720003C4C276847F480472760246822F0030781
:1007300004F480440094384C07EB040CDCF80848BF
:1007400097074FEA177809FA08F7BC43334FB842C6
:1007500002D1002724E054E0314FB84201D10127F3
:100760001EE0304FB84201D1022719E02E4FB842A7
:1007700001D1032714E02D4FB84201D104270FE027
:100780002B4FB84201D105270AE02A4FB84201D1C8
:10079000062705E0284FB84201D1072700E00827C7
:1007A00007FA08F72743CCF80878DAF800405746EC
:1007B000D1F804C09C435FEACC2C00D51C433C60BC
:1007C000DBF800405F46D1F804C09C435FEA8C2C04
:1007D00000D51C433C60DEF800407746D1F804C0E9
:1007E0009C435FEA8C3C00D51C433C60084F083FAB
:1007F0003C68D1F804C09C435FEACC3C00D51C4364
:100800003C60521C102AFFF42FAFBDE8F88F0000A7
:10081000083C0140443802400030014000000240E2
:100820000004024000080240000C02400010024098
:100830000014024000180240001C0240426921EAF4
:1008400002030A4043EA0241816170470AB18161B3
:1008500070470904FBE7000001488068704700000A
:100860005800002002488168027811448160704776
:10087000580000200B4810B5016841F40071016078
:10088000016841F480610160016841F48071016098
:10089000032000F09FF80F2000F006F800F050F859
:1008A000002010BD003C024030B505461F4887B00F
:1008B0000024016841F020010160006806A900F0F1
:1008C0002000009001A800F031F90498A8B100F0D0
:1008D0004DF940001649174AB0FBF1F11648491E80
:1008E000026040F2E732C0E90324C0E901148461E8
:1008F00000F08EFB040003D015E000F037F9E9E7C3
:100900000D4800F025FC04000DD1372000F034F82C
:10091000102D07D200222946372000F03BF8074867
:10092000056000E0012407B0204630BD4038024099
:1009300040420F0000140040400600205C000020F0
:100940000C4882B0016841F480410160006800F405
:10095000804000900748001F016841F0805101600D
:100960000068002200F0805000900F21901E02B01D
:1009700000F010B844380240002809DB00F01F02E4
:10098000012191404009800000F1E020C0F80011F1
:1009900070470000F0B40E4B1B680C46C3F30223F3
:1009A000C3F10705042D00D90425191D072901D21B
:1009B000002300E0DB1E012606FA05F1491E214056
:1009C00099409E40761E16403143F0BC02F015BAA5
:1009D0000CED00E0064900F0070208684FF6FF033F
:1009E000184040EA0220034A1043086070470000A4
:1009F0000CED00E00000FA052DE9F0470E46050079
:100A000065D0DFF81481D8F80000F7B200F00700D5
:100A1000B04207D288F80070D8F8000000F0070054
:100A2000B04254D128683D4C810712D5400703D508
:100A3000206840F4E05020602878000703D5206843
:100A400040F4604020602068A96820F0F00008436E
:100A500020602878C0072DD03049686808390128FF
:100A600012D0022813D0032811D009688907002961
:100A70002DDA216821F0030101432160FFF7ECFE2C
:100A8000814641F2883A0EE009688903EFE7096878
:100A90008901ECE7FFF7E0FEA0EB0901514502D91F
:100AA0000320BDE8F0872068696800F00C00B0EB17
:100AB000810FEFD1D8F80010404601F00701B14294
:100AC00007D90770006800F00700B04201D001208C
:100AD000E7E72878400705D52068E96820F4E0506A
:100AE000084320602878000706D52068296920F48B
:100AF000604040EAC100206000F058F82168084AD0
:100B0000C1F30311515CC8400649086006480068FB
:100B1000FFF7CAFE0020C4E7003C0240083802404C
:100B2000303B0008640000205C0000200F220260BF
:100B30000C4A136803F003034360136803F0F003E7
:100B40008360136803F4E053C36012684FF4E0530A
:100B500003EAD20202610448006800F0070008605E
:100B60007047000008380240003C02400448054934
:100B700000680968044AC1F38221515CC84070478B
:100B80006400002008380240403B00080448054942
:100B900000680968044AC1F34231515CC84070479B
:100BA0006400002008380240403B0008154810B59A
:100BB000006810F00C02144813D01449042A0FD016
:100BC000082A0ED10F4C241F2268236802F03F022E
:100BD0005B0207D52068C0F38810A0FB010106E086
:100BE000084610BD2168C1F38811A1FB0001002354
:100BF000FFF746FB2168C1F30141491C4900B0FBE6
:100C0000F1F010BD083802400024F40040787D0166
:100C10002DE9F84F04006ED02078DFF84C93C00720
:100C2000A9F104054AD009F104000168C1F381016A
:100C3000012908D00068C0F3810002280AD1D9F840
:100C40000000400206D52868800337D56068002878
:100C5000E1D033E06068B0F5803F10D0B0F5A02F50
:100C6000286810D020F480302860286820F4802084
:100C700028606068A8B1FFF7EFFD06460DE0286820
:100C800040F48030F4E740F480202860F7E700BFAC
:100C9000FFF7E2FD801B642873D828688003F7D52E
:100CA0000CE0FFF7D9FD064605E000BFFFF7D4FDD5
:100CB000801B6428F0D828688003F7D42078DFF8F8
:100CC000AC8280074FF0000A3ED5A748001D01689E
:100CD00011F00C0F08D00068C0F3810002280BD17E
:100CE000D9F80000400207D42868800716D5E068CC
:100CF000012800D112E033E1E068B8B10120C8F862
:100D00000000FFF7A9FD064605E000BFFFF7A4FDC0
:100D1000801B0228C0D828688007F7D52868216979
:100D200020F0F80040EAC10028600DE0C8F800A0FB
:100D3000FFF792FD064604E0FFF78EFD801B0228B8
:100D40001FD828688007F7D42078000722D5864F5F
:100D500087486169703771B101210160FFF77CFD3F
:100D6000064604E0FFF778FD801B022809D83868A2
:100D70008007F7D50EE0C0F800A0FFF76DFD06462E
:100D800005E082E0FFF768FD801B02287DD8386807
:100D90008007F7D42078400768D5DFF8CCB100276A
:100DA0000BF13C0BDBF80000C0000BD4DBF80010AB
:100DB00041F08051CBF80010DBF80000012700F073
:100DC000805000906B4E3068C00510D4306840F4FD
:100DD00080703060FFF740FD009005E0FFF73CFDBC
:100DE0000099401A022850D83068C005F6D55E4EEA
:100DF000A0686C3601280FD00528306810D020F08C
:100E000001003060306820F004003060A068B8B1A4
:100E1000FFF722FD00900FE0306840F00100F4E79A
:100E200040F004003060F7E7FFF716FD0099411A23
:100E300041F28830814266D830688007F4D50EE0F0
:100E4000FFF70AFD009007E0FFF706FD0099411A41
:100E500041F28830814256D830688007F4D42FB1EF
:100E6000DBF8001021F08051CBF80010A069C8B366
:100E70003D49091D0968C1F3810102294AD00228B0
:100E8000504607D0C8F8600000E03CE0FFF7E4FC03
:100E900004463BE04746C8F86000FFF7DDFC064625
:100EA00005E000BFFFF7D8FC801B02282BD828687C
:100EB0008001F7D4D4E907010843A16A2E4A490802
:100EC00002EB0141626A41EA8211084394F82C1056
:100ED00040EA0161C9F8001001203866FFF7BCFC48
:100EE000044606E03EE000BFFFF7B6FC001B022808
:100EF00009D828688001F7D534E000BFFFF7ACFCC3
:100F0000001B022802D90320BDE8F88F2868800161
:100F1000F4D427E00128F7D0D9F80000E26900F402
:100F2000800191421CD1226A00F03F01914217D109
:100F300047F6C071626A0140B1EB821F10D1A26A0C
:100F40004FF0FF3300F4403103EB5202B1EB024F9C
:100F500006D194F82C1000F07060B0EB016F01D056
:100F60000120D1E70020CFE70438024000004742CB
:100F7000800E4742007000400000FFFF704770473E
:100F800070B590F83C20012A32D0012480F83C4012
:100F9000022280F83D2003685A689D6822F070069E
:100FA0000A6832435A60134B02689A4214D0B2F175
:100FB000804F11D0104B9A420ED0104B9A420BD05A
:100FC0000F4B9A4208D00F4B9A4205D00E4B9A42D3
:100FD00002D00E4B9A4204D1496825F08003194390
:100FE000916080F83D40002180F83C10084670BDBB
:100FF000022070BD000001400004004000080040D5
:10100000000C004000040140004001400018004076
:1010100010B5040003D094F83D0010B107E00120A2
:1010200010BD002084F83C00204600F01FF802208C
:1010300084F83D00211D206801F0C4FB012084F8E4
:10104000460084F83E0084F83F0084F8400084F8AD
:10105000410084F8420084F8430084F8440084F896
:10106000450084F83D00002010BD000010B586B09A
:10107000044614216846FFF74DF9216800222E48E6
:10108000B1F1804F0CD02D4B994211D1016841F044
:1010900002010160006800F00200059006B010BD7A
:1010A000016841F001010160006800F00100F4E70F
:1010B000234B994210D1016841F010010160006892
:1010C000002200F01000059006213620FFF762FC98
:1010D0003620FFF751FCE1E71A4B994220D1164820
:1010E000001D016841F002010160006800F002008B
:1010F000059011481038016841F004010160006852
:10110000694600F004000590402000900220CDE9DF
:1011100001020320CDE903200B48FFF797FABDE752
:101120000A4A9142BAD1016841F080010160006829
:1011300000F08000B1E700004038024000040040A9
:10114000001000400004014000080240001C004064
:1011500090F83D10012901D001207047022180F84C
:101160003D100168CA6842F00102CA600068114976
:10117000884214D0B0F1804F11D00F4988420ED070
:101180000E4988420BD00E49884208D00D4988424A
:1011900005D00D49884202D00C49884204D18168AB
:1011A00001F00701062903D0016841F00101016047
:1011B000002070470000014000040040000800408B
:1011C000000C0040000401400040014000180040B5
:1011D00070B5044690F83C000025012817D0012680
:1011E00084F83C60022084F83D002068826822F088
:1011F000770222F47F4282600868502838D00DDCE4
:1012000020284FD005DC90B3102811D14AE00220ED
:1012100070BD302846D040280AD13BE060282FD04E
:1012200070280DD0B0F5805F03D0B0F5005F12D00C
:10123000012584F83D60002084F83C00284670BDFC
:10124000CB68D1E90121206801F02DFB206881687D
:1012500041F0770109E0CB68D1E90121206801F074
:1012600022FB2068816841F480418160E1E719E058
:10127000CA684968206801F0EBFB5021206806E04D
:10128000CA684968206801F035FC6021206801F0D7
:1012900014FBCEE7CA684968206801F0D9FB4021F9
:1012A0002068F4E7226801461046F0E770B5194857
:1012B000194C00218669226801255EB10346012E82
:1012C000DB6819D0022E04D1526BC5618260C0E97F
:1012D000053170BD516241608160C1600161416151
:1012E00021680A6A22F00A020A6221680A6A42F048
:1012F00002020A62856170BD516B03614160116A2F
:1013000021F00A01116221680A6A0A6202218161E0
:1013100070BD000000000020DC0400202DE9F04139
:10132000054690F83C0000260C46012810D001200C
:1013300085F83C0072B1042A1CD0082A2CD00C2A53
:1013400050D00126002085F83C003046BDE8F081F1
:101350000220FBE7D4E90012E368286801F08AFB69
:101360002868816921F00C01816128688169A2687F
:1013700011430FE0D4E90012E368286801F0CCFBC8
:101380002868816921F44061816128688169A268C7
:1013900041EA02218161D5E72868D4E9002C277B46
:1013A000016A21F480710162C169036A21F00301BD
:1013B00041EA0C0121F0F00C39074FF420674CEAA8
:1013C000116123F4206307EA02221A43C161026219
:1013D0002868C16921F00C01C1612868C169A2684F
:1013E000114328E02868D4E90027E168036A23F460
:1013F00080530362D0F81CC0036A2CF4407C4CEA92
:1014000007274FF6FF7C27F470470CEA0131394378
:101410004FF4204723F4204307EA02321A43C16104
:1014200002622868C16921F44061C1612868C1690C
:10143000A26841EA0221C16184E710B5040003D02B
:1014400094F83D0010B107E0012010BD002084F8A1
:101450003C00204600F01EF8022084F83D00211DCB
:10146000206801F0AFF9012084F8460084F83E00BE
:1014700084F83F0084F8400084F8410084F842007A
:1014800084F8430084F8440084F8450084F83D0063
:10149000002010BD7047000030B50446002551B152
:1014A00004290DD0082910D094F8410094F8452063
:1014B000012811D10EE094F83E0094F84220F7E79D
:1014C00094F83F0094F84320F2E794F8400094F831
:1014D0004420EDE7012A01D0012030BD022059B19E
:1014E000042912D0082919D084F8410084F8450055
:1014F0000C2944D0012540E084F83E0084F84200E5
:101500002068C26842F0020210E084F83F0084F8CC
:1015100043002068C26842F0040207E084F84000FB
:1015200084F844002068C26842F00802C2600122C8
:10153000206801F0ABF914492068884214D0B0F15A
:10154000804F11D0114988420ED0114988420BD0EA
:101550001049884208D01049884205D00F49884276
:1015600002D00F49884204D1816801F007010629A1
:1015700003D0016841F001010160284630BD2068B8
:10158000C26842F01002D1E70000014000040040B0
:1015900000080040000C00400004014000400140F1
:1015A0000018004070B50446006801694FF000055E
:1015B000C943890715D4C168C943890711D4E91EF5
:1015C000016101202077206880698007204602D0D1
:1015D000FFF76CFE04E000F021F9204600F0D4F99A
:1015E000257720680169C943490717D4C168C943F1
:1015F000490713D46FF004010161022020772068AD
:10160000806910F4407F204602D0FFF74FFE04E0CF
:1016100000F004F9204600F0B7F925772068016949
:10162000C943090716D4C168C943090712D46FF02A
:1016300008010161042020772068C06980072046E6
:1016400002D0FFF733FE04E000F0E8F8204600F097
:101650009BF9257720680169C943C90617D4C16879
:10166000C943C90613D46FF0100101610820207727
:101670002068C06910F4407F204602D0FFF716FEB4
:1016800004E000F0CBF8204600F07EF925772068D2
:101690000169C943C90708D1C168C943C90704D151
:1016A000891E0161204600F0D5F920680169C9430F
:1016B000090609D4C168C943090605D46FF0800141
:1016C00001612046FFF75AFC20680169C9434906B9
:1016D00009D4C168C943490605D46FF040010161CE
:1016E000204600F0CFF920680169C94389060BD470
:1016F000C168C943890607D46FF020010161204603
:10170000BDE87040FFF73BBC70BD000030B587B04E
:10171000044614216846FEF7FDFD24680022364980
:1017200002233648B4F1804F16D0354DAC4224D157
:101730000C6844F001040C60096801F00101059196
:1017400040210091CDE901326946CDE9032300BF74
:10175000FEF77CFF07B030BD0C6844F001040C605C
:10176000096801F0010105912A210091CDE90132BA
:101770000121CDE903216946EAE72248844211D1DB
:10178000086840F0100008600868694600F0100022
:10179000059060200090CDE901320320CDE90320BF
:1017A0001948D5E7194D0920AC4210D10C6844F016
:1017B00002040C60096801F002010591E91300912F
:1017C000CDE90132CDE9032069461148C0E7114D4A
:1017D000AC42BFD10C6844F020040C60096801F0F1
:1017E00020010591A9150091CDE90132CDE9032031
:1017F00069460948ACE7000030380240000002406A
:101800000004004000400140001002400018004069
:1018100000040240001C004000140240704770B5F4
:10182000044690F83C0000260D4601280FD0012008
:1018300084F83C006AB1042A1DD0082A2FD00C2A53
:101840003FD00126002084F83C00304670BD0220C5
:1018500070BD206801F03AF82068816941F0080104
:1018600081612068816921F00401816120688169BA
:101870002A69114311E0206801F058F82068816955
:1018800041F4006181612068816921F48061816196
:10189000206881692A6941EA02218161D2E72068D2
:1018A00001F07AF82068C16941F00801C16120683F
:1018B000C16921F00401C1612068C1692A6911432D
:1018C00011E0206801F09CF82068C16941F40061D2
:1018D000C1612068C16921F48061C1612068C1696A
:1018E0002A6941EA0221C161ACE710B5040003D0C6
:1018F00094F83D0010B107E0012010BD002084F8ED
:101900003C00204600F01EF8022084F83D00211D16
:10191000206800F057FF012084F8460084F83E005C
:1019200084F83F0084F8400084F8410084F84200C5
:1019300084F8430084F8440084F8450084F83D00AE
:10194000002010BD08B500680C49884208D10C4839
:10195000016841F480310160006800F480300BE0E0
:101960000849884209D10648001F016841F040013A
:101970000160006800F04000009008BD0040014098
:1019800044380240001800407047000010B504467B
:10199000022249B104290ED0082913D094F841003D
:1019A000012816D0012010BD94F83E000128F9D17D
:1019B00084F83E200FE094F83F000128F2D184F82B
:1019C0003F2008E094F840000128EBD184F8402043
:1019D00001E084F841200122206800F057FF1649F9
:1019E0002068164A884201D0904203D1436C43F4E8
:1019F000004343642068884213D0B0F1804F10D078
:101A00000F4988420DD00F4988420AD00E498842BA
:101A100007D0904205D00D49884202D00C49884237
:101A200004D1816801F00701062903D0016841F063
:101A300001010160002010BD0000014000040140D0
:101A40000004004000080040000C0040004001403D
:101A50000018004010B5044600680749884201D1CB
:101A6000FEF700FF05492068884203D10448C16899
:101A7000491CC16010BD000000140040000401407A
:101A80000000002070477047704710F83D1F4078F5
:101A900008437047F8B5016804460868CA684B698E
:101AA00010F00F0F4FF000055AD003F0010602F4BA
:101AB0009077374365D0C10705D0D10503D5216C98
:101AC00041F001012164410705D5D90703D0216CFC
:101AD00041F002012164810705D5D90703D0216CAB
:101AE00041F004012164010707D502F020013143D0
:101AF00003D0216C41F008012164216C00293BD006
:101B0000800604D5900602D5204601F04FF82068E3
:101B10004069216CC0F3801001F0080101432046A8
:101B20002BD001F01CF820684069400621D52068C0
:101B3000143050E8001F21F0400140E80012002A54
:101B4000F5D1A06BA8B16C490165A06BFEF76BFDE8
:101B5000002811D0A06B016D01B0BDE8F04008472E
:101B600083060ED593060CD52046BDE8F84001F05B
:101B70001DB82046FFF788FFF8BDFFF785FF2564F5
:101B8000F8BD266B2023012E79D1C60677D5D6065F
:101B900075D50868486800904869400640D5A16B33
:101BA000086840680004000CEAD0A28D8242E7D9A0
:101BB000E085C869B0F5807F2DD020680C3050E8F2
:101BC000001F21F4807140E80012002AF5D120683E
:101BD000143050E8001F21F0010140E80012002AF3
:101BE000F5D12068143050E8001F21F0400140E892
:101BF0000012002AF5D184F83E30256320680C30AD
:101C000050E8001F21F0100140E80012002AF5D131
:101C1000A06BFEF7BFFCA08DE18D401A81B229E0D8
:101C2000A08DE18D401A81B2E08D0028A8D0002956
:101C3000A6D020680C3050E8002F22F4907240E8C3
:101C40000026002EF5D12068143050E8002F22F035
:101C5000010240E80026002EF5D184F83E302563CD
:101C600020680C3050E8002F22F0100240E80023DA
:101C7000002BF5D12046FFF706FFF8BDFFE705066C
:101C80002BD5150629D594F83D002128F5D1A0685B
:101C9000B0F5805F01D12069B0B1206A411C21629A
:101CA000216800784860E08C401E0004000CE0844D
:101CB000E3D12068C16821F08001C1602068C1685B
:101CC00041F04001C160D8E7206A0088C0F30800F5
:101CD0004860206A801C2062E5E74006CDD55006AA
:101CE000CBD5CA68204622F04002CA6084F83D3055
:101CF00000F0C4F8C1E700004F2B000870B50400E5
:101D000004D094F83D00002510B106E0012070BD1C
:101D100084F83C50204600F023F8242084F83D004D
:101D20002068C16821F40051C160204600F09EFF88
:101D30002068016921F4904101612068416921F026
:101D40002A0141612068C16841F40051C1602564E5
:101D5000202084F83D0084F83E00002070BD000083
:101D600010B586B0044614216846FEF7D3FA184928
:101D70002068884229D117480021026842F4802255
:101D80000260006800F48020059012481038026854
:101D900042F002020260006800F0020005904FF479
:101DA000406000900220CDE901010320039007204C
:101DB000049069460848FEF749FC002205212720C7
:101DC000FEF7E8FD2720FEF7D7FD06B010BD0000A6
:101DD00000480040403802400004024090F83E3085
:101DE000202B0ED159B152B190F83C30012B08D0C4
:101DF000012380F83C300023036300F0BDBF0120C5
:101E000070470220704700002DE9F0410068174933
:101E1000884228D11648174E04460178608831540C
:101E200010B931780F291ED1401C80B20027608084
:101E3000642800D9678030780F2814D1307E0028BC
:101E400011D1608819280ED10A4801F0C3FADFF8D1
:101E50002880002502214046FEF7F0FC6D1C192D5C
:101E6000F8DB77556780BDE8F0810000004800404E
:101E70000000002024010020001402407047FEE70B
:101E800010B596B01C2211496846FEF72AFA0021C7
:101E9000684601F03BF80E4C0C491C2260621C3174
:101EA00007A8FEF71EFA002107A801F02FF807493E
:101EB000A0621C2238310EA8FEF713FA00210EA8EA
:101EC00001F024F8E06216B010BD0000DC3A000812
:101ED000280000202DE9F04186B014216846FEF765
:101EE00019FA2B480024016841F0100101600168D3
:101EF00001F010010591016841F0200101600168C5
:101F000001F020010591016841F080010160016844
:101F100001F080010591016841F001010160016853
:101F200001F001010591016841F0020101600168C1
:101F300001F002010591016841F0040101600068AF
:101F4000144F00F0040005900022FF213846FEF7F0
:101F50007DFCDFF844804FF4827600223146404613
:101F6000FEF774FCFF2000900125CDE9015469467D
:101F700038460394FEF76AFB0096CDE901546946A2
:101F800040460394FEF762FB06B0BDE8F081000016
:101F900030380240001402400000024010B588B002
:101FA0001C216846FEF7B6F9124811490024016069
:101FB0005321C0E9011440F2A461C0E90314846113
:101FC000FFF793FC08B1FEF7E3FA6020CDE90004C7
:101FD00002940422694607480494FFF720FC08B1E4
:101FE000FEF7D6FA0348FFF791FB08B010BD0000DA
:101FF000001800406C05002010B588B01C21684610
:10200000FEF788F915481449002401605321C0E9FE
:10201000011440F2A461C0E903148461FEF7F8FFE3
:1020200008B1FEF7B5FA0D48FFF75FFC08B1FEF7FF
:10203000AFFA6020CDE90004029400226946074807
:102040000494FFF7ECFB08B1FEF7A2FA0348FFF790
:102050005DFB08B010BD0000001C0040B40500206E
:1020600010B58EB000240794089409940A940B9438
:102070001C2168460C94FEF74DF926484FF080412C
:1020800001605321C0E9011444F62061C0E9031442
:102090008461FEF7BDFF08B1FEF77AFA4FF4805075
:1020A000079007A91B48FFF793F808B1FEF770FAED
:1020B0001848FFF71AFC08B1FEF76AFA0B940BA94F
:1020C00014480C94FEF75CFF08B1FEF761FA60203B
:1020D000CDE900040294002269460E480494FFF7FB
:1020E0009EFB08B1FEF754FA042269460948FFF73F
:1020F00096FB08B1FEF74CFA0C2269460548FFF73B
:102100008EFB08B1FEF744FA0248FFF7FFFA0EB063
:1021100010BD00000404002010B58EB00024079408
:10212000089409940A940B941C2168460C94FEF7B9
:10213000F1F81E481C4901605321C0E9011444F61E
:102140002061C0E903148461FEF762FF08B1FEF765
:102150001FFA4FF48050079007A91448FFF738F88A
:1021600008B1FEF715FA1148FFF7BFFB08B1FEF7FB
:102170000FFA0B940BA90D480C94FEF701FF08B160
:10218000FEF706FA6020CDE90004029400226946B9
:1021900006480494FFF743FB08B1FEF7F9F903483A
:1021A000FFF7B4FA0EB010BD000400404C0400204C
:1021B0001CB500240F4800940D49019401604FF4B0
:1021C000D261C0E901144CF250318461C160FEF764
:1021D0001FFF08B1FEF7DCF9009469460548019439
:1021E000FEF7CEFE002801D0FEF7D2F91CBD00009C
:1021F000001000409404002010B58AB00024234849
:102200000494059406940794089409940094019406
:1022100002941D49039401605321C0E9011447F25F
:102220003051C0E903148021C0E90541FEF7F0FEFA
:1022300008B1FEF7ADF94FF48050049004A913489B
:10224000FEF7C6FF08B1FEF7A3F91048FFF7F5F84F
:1022500008B1FEF79DF9089408A90C480994FEF707
:102260008FFE08B1FEF794F90120CDE900400294F9
:102270000022694605480394FFF750F8002801D072
:10228000FEF786F90AB010BD00040140DC0400200E
:1022900010B588B01C216846FEF73CF81648154971
:1022A00000240160A721C0E9011440F2A461C0E943
:1022B00003148461FFF719FB08B1FEF769F9602088
:1022C000CDE900040294002269460B480494FFF70C
:1022D000A6FA08B1FEF75CF9042269460648FFF742
:1022E0009EFA08B1FEF754F90348FFF70FFA08B059
:1022F00010BD000000400140240500200D4810B52D
:102300000B4901600C49416000214FF40052C0E9C3
:102310000212D21002610C22C0E90521C161FFF74F
:10232000EDFC002803D0BDE81040FEF731B910BD28
:1023300000480040FC050020A0860100FEE7FEE703
:1023400001220B490B48FFF749FD0B4D0B4CA88EA2
:102350006168401A6061688EA168401A2061288F08
:102360002168401AE060142000F0C4FDEFE700008F
:1023700000000020FC050020D000002028000020E4
:102380002DED028B4FF496769FEDA38BDFF890A294
:10239000DFF890B277425446DAF80C20D4E9041002
:1023A00001F008F8206204460068FEF730F853ECAC
:1023B000182BFDF7BAFFFEF73BF805462060606872
:1023C000FEF725F853EC182BFDF7AFFFFEF730F8BA
:1023D00081466060A068FEF71AF853EC182BFDF7F1
:1023E000A4FFFEF725F88046A060E068FEF70FF82E
:1023F00053EC182BFDF799FFFEF71AF80146E06041
:102400004FF47A70854202DB40F2A46222605546A6
:10241000814502DB40F2A4626260804502DB40F24B
:10242000A462A260814202DB40F2A460E0607E48C8
:102430002168814201DC7D4921606168814201DCC3
:102440007A496160A168814201DC7849A160E16854
:10245000814201DC7548E0602068B8420EDA012252
:1024600011465C465846FEF7F1F90022022120464B
:10247000FEF7ECF9286A006841420EE0B04210DD38
:10248000002201215C465846FEF7E0F901220221B4
:102490002046FEF7DBF9286A016865480068816319
:1024A00003E06349002009688863286A4068B842ED
:1024B0000EDA002210215C465846FEF7C7F90122C9
:1024C00020212046FEF7C2F9286A406841420EE00A
:1024D000B04210DD012210215C465846FEF7B6F9E5
:1024E000002220212046FEF7B1F9286A41685148B0
:1024F0000068816303E04F49002009688863286A07
:102500008068B8420EDA012204215C465846FEF784
:102510009DF9002208212046FEF798F9286A806874
:1025200041420EE0B04210DD002204215C465846D4
:10253000FEF78CF9012208212046FEF787F9286A68
:1025400081683B480068416303E03949002009681D
:102550004863286AC068B8420EDA002240215C460F
:102560005846FEF773F9012280212046FEF76EF9E6
:10257000286AC06841420EE0B04210DD01224021CD
:102580005C465846FEF762F9002280212046FEF79D
:102590005DF9286AC16828480068416303E026495C
:1025A0000020096848632549086801282FD124487C
:1025B00047F23152DFED240A00685043214A126885
:1025C0001044401C00EE100A204847F23152B8EE89
:1025D000400A006850431E4A60EE200A1268104408
:1025E000401C00EE100A1B4AB8EE400A80EE801A2A
:1025F00000EE100ADFED180A1848B8EE400A82ED26
:10260000001A80EE801A80ED001A00200860012078
:1026100000F070FCBFE60000000000000000F83F82
:10262000280000200014024018FCFFFF5CF9FFFFA7
:10263000240500206C050020B40500201C000020AB
:1026400010000020040000200000C84214000020F8
:102650000800002020000020B5447149240000201B
:102660004FF46174DFF864B0DFF864A0194DDFF84F
:10267000689040F69807A4F1320840F23A7600BF1D
:10268000BBF83C20DAF818309A4204DC2A6856631A
:102690002B681C6404E02B68C3F834802A68166435
:1026A000BBF83A00DAF81C10884205DC286887631A
:1026B000D9F80000446304E029688C63D9F800006D
:1026C0004763012000F016FCDAE70000D00000208C
:1026D00028000020040400204C04002010B55020E5
:1026E00080F31188BFF34F8FBFF36F8F01F02EF986
:1026F00018B104494FF080500860002080F3118821
:1027000010BD000004ED00E030B593B03021684604
:10271000FDF700FE14210CA8FDF7FCFD1D48002567
:10272000016841F080510160006800F08050119014
:102730001948016841F4804101600068022400F4F6
:102740008040119001200390102004900094069482
:102750000820CDE90750A820CDE9090404200B90FA
:102760006846FEF755FA08B172B6FEE70CA90F20CD
:1027700081E831004FF4A0500F904FF4805010903A
:1027800005210CA8FEF738F9002801D072B6FEE743
:1027900013B030BD4038024000700040024801686C
:1027A00041F470010160704788ED00E00148FEF7D8
:1027B000F9BE0000940400200148FEF7F3BE0000BB
:1027C00040060020F0B50268254C264D264E274FC6
:1027D000274B4FF0804CA04209D0604507D0A8425B
:1027E00005D0B04203D0B84201D0984204D122F0C3
:1027F000700E4A6842EA0E02A0421BD0604519D012
:10280000A84217D0B04215D0B84213D0984211D088
:10281000184DA8420ED0184DA8420BD0174DA84213
:1028200008D0174DA84205D0164DA84202D0164D2B
:10283000A84203D122F44075CA682A434D6922F0A8
:1028400080022A4302608A68C2620A688262A042E9
:1028500001D0984201D10969016301214161F0BDB4
:10286000000001400004004000080040000C00404F
:102870000004014000400140004401400048014084
:1028800000180040001C00400020004010B501F07E
:102890001F030121046A99408C430462016A9A4033
:1028A0001143016210BD10B5846842EA032224F48A
:1028B0007F440A432243826010BD826822F0700286
:1028C0000A4342F00701816070470000F0B5026AD8
:1028D00022F001020262036A42688469124E24F007
:1028E00073050C682C4323F002058B682B430D4DB8
:1028F000A84201D0B04205D123F00807CB683B4382
:1029000023F00403A84201D0B04205D14D6922F45E
:10291000407215438A692A43426084614968416371
:102920000362F0BD0000014000040140F0B5026AFE
:1029300022F010020262026A436884690D6824F47E
:10294000E64444EA05248D6822F0200242EA05129A
:102950000F4D104EA84201D0B04206D1CF6822F0F0
:10296000800242EA071222F04002A84201D0B0429F
:1029700007D14D6923F4406343EA85038D6943EA37
:10298000850343608461496881630262F0BD000091
:102990000000014000040140F0B5026A22F4807298
:1029A0000262026A4368C46922F4007224F073056B
:1029B0000C68124E2C438D6842EA05220E4DA84247
:1029C00001D0B04206D1CF6822F4006242EA072269
:1029D00022F48062A84201D0B04207D14D6923F4AD
:1029E000405343EA05138D6943EA05134360C4610C
:1029F0004968C1630262F0BD00000140000401406B
:102A000030B5026A22F480520262046A4268C369E5
:102A10000D6823F4E64343EA05238D6824F400544B
:102A200044EA0534084DA84202D0084DA84204D11A
:102A30004D6922F4804242EA85124260C3614968CE
:102A40000164046230BD0000000001400004014048
:102A500010B5036A046A24F001040462846924F056
:102A6000F00444EA021423F00A020A438461026279
:102A700010BD000070B5046A24F00104046284698A
:102A8000056A154EB04214D0B0F1804F11D0134EEC
:102A9000B0420ED0124EB0420BD0124EB04208D00F
:102AA000114EB04205D0114EB04202D0104EB0428D
:102AB00003D124F00304144301E044F001041A0795
:102AC00024F0F00444EA126225F00A0301F00A013E
:102AD00019438261016270BD0000014000040040A2
:102AE00000080040000C004000040140004001408C
:102AF0000018004010B5036A23F0100303628369D5
:102B0000046A23F4704343EA023224F0A00343EA48
:102B100001118261016210BD30B5046A24F0100415
:102B200004628469056A24F4407444EA022222F4AF
:102B300070444FF6FF7202EA03322243A02425F0CC
:102B4000A00304EA011119438261016230BD10B58E
:102B5000806B0021C185C184FEF796FF10BD01681E
:102B60000C3151E8002F22F4907241E80023002B31
:102B7000F5D10168143151E8002F22F0010241E83B
:102B80000023002BF5D1016B012909D101680C311B
:102B900051E8002F22F0100241E80023002BF5D16C
:102BA000202180F83E1000210163704708B590F89D
:102BB0003E10222901D0022008BD82684FF48053C4
:102BC0009A4201D1016921B1816A9A421BD04AB16E
:102BD0000AE00268816A5268C2F308020A80816AC8
:102BE000891C08E0026972B10268526802F07F0233
:102BF0000A70816A491C8162C18D491E0904090C51
:102C0000C18503D019E002685268F1E70168CA681B
:102C100022F02002CA600168CA6822F48072CA6089
:102C200001684A6922F001024A61202180F83E10C1
:102C3000016B012903D0FFF7E7F8002008BD002150
:102C4000016301680C3151E8002F22F0100241E8C5
:102C50000023002BF5D101680A68D20602D50A6864
:102C600049680091818DFEF70EFFE6E770B50446D6
:102C700000680169E26821F4405111430161216952
:102C8000A068E26908436169114308432168CA6882
:102C900049F20C639A430243CA6020684169A26901
:102CA00021F440711143416131492068884202D0CA
:102CB0003049884202D1FDF769FF01E0FDF756FF78
:102CC000E2690023192164253226B2F5004F6268BB
:102CD00028D0A0FB0101930F9200FDF7D1FA014625
:102CE000B0FBF5F06FF01802504301EB800006EBEB
:102CF0000010B0FBF5F000F0F002B1FBF5F002EBD4
:102D00000012B1FBF5F06FF01803584301EB80009F
:102D100006EB0010B0FBF5F000F00F002168104446
:102D2000886070BDA0FB010192185B41FDF7A8FA15
:102D30000146B0FBF5F00201B1FBF5F06FF01803AE
:102D4000584301EB800006EBC000B0FBF5F000F04B
:102D5000F80002EB4002B1FBF5F0584301EB8000B4
:102D600006EBC000B0FBF5F000F00700D6E700006E
:102D7000001001400014014081628285C28500215B
:102D80000164222280F83E2080F83C10016921B1C4
:102D90000168CA6842F48072CA6001684A6942F0F8
:102DA00001024A610068C16841F02001C160002051
:102DB0007047000070B500240C4D0D48FEF76AFE08
:102DC00002E0641CAC4204D80948FEF75EFE2028ED
:102DD000F7D1002402E0641CAC4206D80122054968
:102DE0000348FEF7FBFF0028F5D170BDFFFF01008F
:102DF000FC05002000000020FEE70907090E00285E
:102E000004DB00F1E02080F80014704700F00F00B0
:102E100000F1E02080F8141D704702E008C8121F7E
:102E200008C1002AFAD170477047002001E001C1B3
:102E3000121F002AFBD17047FDF71CFDFFF764FC51
:102E4000FFF748F8FFF75AFAFFF7B2F9FFF720FA51
:102E5000FFF7A4F8FFF7D0F8FFF7CEF9FFF700F976
:102E6000FFF75AF904211948FEF790FD0021174891
:102E7000FEF78CFD1648FEF76BF904211548FEF7A6
:102E800085FD00211448FEF781FD0C211348FEF753
:102E90007DFD00211148FEF779FD04210F48FEF762
:102EA00075FD00210E48FEF771FD0E494FF0FF3011
:102EB000096808610B48FEF74BF900210948FEF745
:102EC000EBFAFEF7DDFF00F01CF8FEE7240500201A
:102ED000940400206C050020B405002004040020A8
:102EE0004C040020DC04002001460020842900D08E
:102EF000C81C704710B500B9012000F0C3FB0020CA
:102F000010BD10B500F0E4FB002010BD7FB50D46EC
:102F100004464169B0F9080081B1A16971B1FFF7B8
:102F2000E3FFD4E905128DE80700D4E900102B4631
:102F3000226900F0E0FC039004B070BDFFF7D4FFFD
:102F400003A9CDE90001208A2B4682B2D4E9001002
:102F500000F0A4FC012801D00020EDE70398EBE786
:102F60002DE9F041184C0F460546E6682068001D23
:102F700000F0C0FA38B9206890F82C100120884081
:102F8000216981432161681C07D137B12168BDE8FF
:102F9000F0410E48091D00F0F1BA20683544B542F1
:102FA0004560216805D2A06BBDE8F041091D00F025
:102FB000CDBA606B091D00F0C9FAA06A854200D243
:102FC000A562BDE8F08100006800002064070020D1
:102FD0002DE9F041054600F0DDFA2E4CA068401CBA
:102FE000A06020682C4F10B1606940B32DE02560CF
:102FF000A068012829D1002606EB860007EB800097
:1030000000F096FA761C072EF6D323488C3000F099
:103010008FFA2148A03000F08BFA1F48B43000F03E
:1030200087FA1D48C83000F083FA1B48DC3000F0F6
:103030007FFA19488C3060631430A06305E0206883
:10304000E96AC06A884200D82560606A401C6062F4
:10305000E96A0120226988401043206101EB810068
:1030600007EB8000291D00F089FA00F0B3FA6069CF
:1030700000280CD02068E96AC06A884207D2074954
:103080004FF080500860BFF34F8FBFF36F8FBDE8E4
:10309000F0810000680000208806002004ED00E0B8
:1030A00010B5044690F8510058B101280CD0022800
:1030B0000FD0502080F31188BFF34F8FBFF36F8F75
:1030C000FEE7206B00F09AFA2046BDE8104000F0C1
:1030D00095BA10BD10484FF47051420706D0C01D7C
:1030E0000D4920F00700411AC1F570510B4A002329
:1030F0000144C2E900030839183A21F007011160C0
:103100004B600B600B1AC0E9001393604FF0004056
:10311000536050617047000078070020BC00002019
:10312000144E154CA6F1C8074FF08058DFF84C90AC
:1031300012E000BF00F02EFAF068C568281D00F00C
:10314000D9F9A068401EA0606068401E606000F071
:1031500041FA2846FFF7A4FF60680028EAD13868E2
:103160000128F9D9C9F80080BFF34F8FBFF36F8FE3
:10317000F2E70000500700206800002004ED00E0A6
:103180002DE9F0479A46DDE9098481466FF0030393
:10319000206B03EB82021044089E20F0070778079B
:1031A00007D0502080F31188BFF34F8FBFF36F8F8C
:1031B000FEE7002561B1002023180A5C83F8342063
:1031C0000A5C12B1401C1028F6D384F8435001E089
:1031D00084F83450072E00D30626E662C4E9116550
:1031E000201D00F0B0F904F1180000F0ACF92461E2
:1031F000C6F107006462A061E56484F8505052464D
:103200004946384600F0C0F82060B8F1000F01D000
:10321000C8F80040BDE8F08730B5114900E011461C
:103220000A688242FBD34B685C18844203D1406831
:1032300018444860084643681C18944209D1084C59
:10324000183C2468A24209D052681A4442600A68B5
:1032500012680260814200D0086030BD0460F9E766
:10326000BC0000200648416B096829B1416BC96860
:10327000C9684968816270474FF0FF31FAE7000082
:103280006800002008484068401C4FF0500080F360
:10329000118804D0BFF34F8FBFF36F8FFEE7BFF3EA
:1032A0004F8FBFF36F8FFEE7C40000202DE9F04180
:1032B0000546002700F042FA324E306808B9FFF7A1
:1032C00009FF706905424ED1C5B3083568070ED0B5
:1032D00005F00700C0F108000544680707D050203A
:1032E00080F31188BFF34F8FBFF36F8FFEE72DB3CD
:1032F0007068854237D82348183001460C6801E0D1
:1033000020460C466168A94202D221680029F7D103
:1033100031688C4227D007682168016060680837EF
:10332000411B10290FD96019420708D0502080F3A3
:103330001188BFF34F8FBFF36F8FFEE713E041603B
:103340006560FFF769FF61687068401A7060B26875
:10335000904200D2B060706901430020C4E90001CE
:10336000F068401CF06000F057FB780707D0502051
:1033700080F31188BFF34F8FBFF36F8FFEE738469E
:10338000BDE8F081A400002010B5031F4FF0807449
:103390001C601B1F21F001011960191F044B0B60F9
:1033A00014390A60091F6FF0020244380A6010BD28
:1033B0008532000810B5064C4318401A991A21604E
:1033C000991861608118801AC4E90210204610BD66
:1033D00088010020C27D46491AB1002081F85200C0
:1033E0007047012281F85220B0F80120C2F30A028E
:1033F00021F8322F8278C378D20842EA4312C2F30E
:103400000A024A80C2780379920942EA8302437928
:1034100042EA8322C2F30A028A80427983795208FF
:1034200042EAC312C2F30A02CA808279C37912093E
:1034300042EA0312C2F30A020A81C279037AD2096C
:1034400042EA4302437A42EA4322C2F30A024A8131
:10345000427A837A920842EA8312C2F30A028A818C
:10346000827AC37A520942EAC302CA818289C2F3CC
:103470000A020A82427B837BD20842EA4312C2F3E9
:103480000A024A82827BC37B920942EA8302037C5E
:1034900042EA8322C2F30A028A82027C437C5208F7
:1034A00042EAC312C2F30A02CA82427C1209837C36
:1034B00042EA0312C2F30A020A83827CC37CD20965
:1034C00042EA4302037D42EA4322C2F30A024A83EC
:1034D000027D437D920842EA8312C2F30A028A8384
:1034E000427D807D520942EAC000C88301207047B6
:1034F000D0000020D0E9013201699A60D0E90123AF
:103500005A604A68824201D182684A6000220261A0
:103510000868401E0860086870470000034B03609D
:1035200003F154000860802010607047B001002053
:1035300000F108014FF0FF32C0E90112C1600161E2
:1035400000210160704700210161704730B50B68B0
:103550005A1C02D000F1080202E0026904E022468F
:10356000546825689D42FAD953684B6099608A6017
:10357000516008610168491C016030BD42684A60C1
:1035800093688B6093685960916008610168491C79
:1035900001607047502080F31188BFF34F8FBFF355
:1035A0006F8F0A494868401C486001280CD10848C0
:1035B000006810F0FF0F07D0502080F31188BFF390
:1035C0004F8FBFF36F8FFEE770470000C4000020ED
:1035D00004ED00E00849486828B1401E486001D168
:1035E00080F311887047502080F31188BFF34F8F0C
:1035F000BFF36F8FFEE70000C400002070B5002805
:103600002AD0164DA0F1080460686969084207D104
:10361000502080F31188BFF34F8FBFF36F8FFEE709
:1036200022683AB1502080F31188BFF34F8FBFF367
:103630006F8FFEE78843606000F080F8606869681B
:10364000084468602046FFF7E7FD2869401C2861B0
:10365000BDE8704000F0E0B970BD0000A40000209B
:103660004FF0E02000210161816105494FF47A7239
:103670000968B1FBF2F1491E416107210161704700
:103680006400002010B5020014D00F48006B38B160
:10369000502080F31188BFF34F8FBFF36F8FFEE789
:1036A00000F04CF800211046FFF75AFC00F0B4F986
:1036B000002807D105494FF080500860BFF34F8FB5
:1036C000BFF36F8F10BD00006800002004ED00E024
:1036D00010B586B00024039405AA04A903A8049495
:1036E000FFF71CFFDDE903010094CDE90110002381
:1036F0000EA11048059A00F0FEF80F490028C86294
:1037000011D0502080F31188BFF34F8FBFF36F8F1C
:103710004FF0FF30886201204861CC6006B0BDE800
:10372000104000F041B806B010BD000049444C45BF
:103730000000000021310008680000200248016BF1
:10374000491C016370470000680000201448016BA9
:1037500011B10121C16170470021C1610169B1FA54
:1037600081F1C1F11F0101EB81020E4951F82230B4
:103770006BB101EB820101F108034A6852684A60AB
:103780009A4201D152684A60D16801607047502066
:1037900080F31188BFF34F8FBFF36F8FFEE70000F8
:1037A00068000020880600201CB537480168374AA9
:1037B000914207D1502080F31188BFF34F8FBFF3A0
:1037C0006F8FFEE700683149491E884207D15020BB
:1037D00080F31188BFF34F8FBFF36F8FFEE72C4943
:1037E00008780190FF20087008788DF800009DF897
:1037F00000009DF8002000F0F000904207D050201B
:1038000080F31188BFF34F8FBFF36F8FFEE79DF8F2
:103810000000204C00F0500020700720A06005E060
:103820009DF8002052008DF80020401E9DF80020D9
:103830001206F5D4A060032807D0502080F3118829
:10384000BFF34F8FBFF36F8FFEE74FF44070A06060
:10385000019808700C482030016841F47001016043
:10386000016841F070410160FFF7FAFE00206060DE
:10387000FCF7B8FC0848016841F040410160FCF7E2
:103880009DFC00201CBD000000ED00E071C20F4156
:1038900000E400E0C400002034EF00E02DE9FF5F09
:1038A0008346DDE90E87994616468A469000FFF763
:1038B000FDFC05001CD05420FFF7F8FC040014D0D8
:1038C0000020256384F85100CDE90240CDE900874E
:1038D0004B46324651465846FFF752FC2046FFF70A
:1038E00077FB012004B0BDE8F09F2846FFF786FE75
:1038F0004FF0FF30F6E7F0B585B0DDE90B640A9DC7
:10390000A6B1DCB1542700972663022684F85160E3
:10391000002604AFCDE90246CDE90057FFF730FCA1
:103920002046FFF755FB049805B0F0BD502080F30A
:103930001188BFF34F8FBFF36F8FFEE7502080F3E6
:103940001188BFF34F8FBFF36F8FFEE72DE9F04172
:103950002F4C0026206B28B1A069401CA061304686
:10396000BDE8F081E5686D1CE56013D1606B00680F
:1039700038B1502080F31188BFF34F8FBFF36F8FA2
:10398000FEE7606BA16B6163A063206A401C20624C
:10399000FFF768FCA06ADFF87C80854209D3606B82
:1039A0000068A0B1606BC068C7687868854211D2B2
:1039B000A0622068C06A00EB800158F8210001284D
:1039C00000D90126E0690028C9D00126C7E74FF0D9
:1039D000FF30EDE7381DFFF78DFDB86A18B107F12C
:1039E0001800FFF787FDF96A01202269884010431B
:1039F000206101EB810108EB8100391DFFF7BEFD5D
:103A0000F86A2168C96A8842C9D30126C7E700005D
:103A100068000020880600202DE9F0472C4D002486
:103A20002746286B38B1FFF7B5FD286B401E286389
:103A3000286B40B146E0502080F31188BFF34F8FD0
:103A4000BFF36F8FFEE7A968224E0120D1B3A6F124
:103A5000B40980463068E8B1F068C46804F1180021
:103A6000FFF748FD201DFFF745FDE06A2A6908FAC7
:103A700000F11143296100EB800109EB8100211D58
:103A8000FFF77CFDE06A2968C96A8842E2D3C5F87D
:103A90001C80DFE70CB1FFF7E5FBAC6944B146469B
:103AA000FFF754FF00B1EE61641EF9D10020A86158
:103AB000E86938B10849012738070860BFF34F8F1C
:103AC000BFF36F8FFFF786FD3846BDE8F087000033
:103AD000680000203C07002004ED00E0543B000893
:103AE00041230008000000000000000080000000EA
:103AF0000000000000000000483B0008812300088F
:103B0000FDFF000000000000800000000000000039
:103B100000000000603B000861260008FDFF000077
:103B20000000000080000000000000000000000015
:103B3000000000000000000001020304060708095D
:103B400000000000010203046D795461736B303290
:103B50000000000064656661756C745461736B00ED
:103B6000466F72736572766F000000008C3B000830
:103B700000000020D00000001A2E00085C3C000865
:103B8000D0000020A84600002A2E000800000000F7
:103B90000000000000000000000000000000000025
:103BA0000000000000000000000000000000000015
:103BB00000000000A2030000C00300005203000048
:103BC000000000000000000000000000F0060000FF
:103BD000E4030000000000000000000000000000FE
:103BE00000000000010000001000000000000000C4
:103BF0000024F400000000000000000000000000AD
:103C000000000000000000000000000000000000B4
:103C100000000000000000000000000000000000A4
:103C20000000000000000000000000000000000094
:103C30000000000000000000000000000000000084
:103C40000000000000000000000000000000000074
:0C3C500000000000AAAAAAAA00000000C0
:040000050800018965
:00000001FF
